:020000040001F9
:10400000F8380020C1410100D3410100D541010031
:1040100000000000000000000000000000000000A0
:10402000000000000000000000000000D741010077
:104030000000000000000000D9410100DB41010048
:10404000DD410100DD410100DD410100DD410100F4
:10405000DD41010000000000E57301007542010030
:10406000DD410100DD410100DD410100DD410100D4
:10407000DD410100DD410100DD410100DD410100C4
:10408000DD410100D9590100DD410100DD410100A0
:104090006B5A01009D73010069620100DD4101005E
:1040A000DD410100DD4101000000000000000000D2
:1040B0000000000000000000000000000000000000
:1040C00000F002F800F040F80CA030C808382418BE
:1040D0002D18A246671EAB4654465D46AC4201D140
:1040E00000F032F87E460F3E0FCCB6460126334232
:1040F00000D0FB1AA246AB463343184744390000B0
:1041000064390000103A02D378C878C1FAD852074F
:1041100001D330C830C101D504680C60704700007D
:104120000023002400250026103A01D378C1FBD8D3
:10413000520700D330C100D50B6070471FB5C04691
:10414000C0461FBD10B510BD03F042FC1146FFF77D
:10415000F5FF00F082FB03F05AFC03B4FFF7F2FF17
:1041600003BC03F05FFC0000401E00BF00BF00BFA7
:1041700000BF00BF00BF00BF00BF00BF00BF00BF47
:1041800000BFF1D17047000070B505460C461646D9
:1041900002E00FCC0FC5103E102EFAD2082E02D32B
:1041A00003CC03C5083E042E07D301CC01C5361F3E
:1041B00003E021782970641C6D1C761EF9D270BD55
:1041C0000A4802680F210A430260094880470948EB
:1041D0000047FEE7FEE7FEE7FEE7FEE7FEE700003A
:1041E00005480649064A074B704700002405004071
:1041F00009420100C1400100F8280020F8380020E1
:10420000F8300020F83000200848008D0006000F2C
:10421000012805D1074906484860C8130649886146
:10422000704707490548086070470000C00F00F05C
:10423000DFFF07C000050040006C00400024F400D0
:1042400000200020BFF34F8FFE49FD48C860BFF338
:104250004F8FFEE7BFF34F8FFA49F948C860BFF3AD
:104260004F8FFEE7BFF34F8FF649F548C860BFF3A5
:104270004F8FFEE7F4480168002965D010B5002192
:104280000160F2488068F24A0121C0B251604B21BE
:1042900009014843FF2103F0A4FA41004018FF3010
:1042A0000F30EC4980B2884201D3642136E0EA4AFB
:1042B000904209D9081A3A214843642103F09FFA31
:1042C0006421081AC1B229E0E44B984209D9101AB6
:1042D00018214843A02103F092FA2A21081AC1B2FA
:1042E0001CE0DF4988420AD9181A0C214843FF21F3
:1042F0002D3103F084FA1221081AC1B20EE0D94A16
:1043000090420AD9081A06214843FF21553103F08B
:1043100076FA0621081AC1B200E00021D24800F066
:1043200019FF00280FD008280DD0D04988420AD0A4
:10433000CF49884207D0BFF34F8FC249C048C860F9
:10434000BFF34F8FFEE710BD7047F0B58BB0002074
:104350000090019002900390694604900870C54C4B
:104360000872A068B64DB74E2827002806D001284D
:1043700006D0022826D0032838D12CE00120A060E6
:1043800006A802F05BFB002805D0BFF34F8FF56055
:10439000BFF34F8FFEE76846007F002803D108A8CF
:1043A0000079002807D002206946087206A8039009
:1043B000042000F014FC69460F821E20488202206F
:1043C000A06013E0052000F00AFC69460F821E2061
:1043D00048820320F4E7052000F001FC1921C901FF
:1043E00068460182B42141820420A060684663DFF0
:1043F000002805D0BFF34F8FF560BFF34F8FFEE766
:104400002079002813D1012020709B4A81049160FB
:1044100020702071974A9949606901F0C8FB002813
:1044200005D0BFF34F8FF560BFF34F8FFEE70BB0A2
:10443000F0BDF0B4924901204860844918224A60D6
:10444000814F00263E600860072027DF7C4C7D4DB1
:10445000002805D0BFF34F8FEC60BFF34F8FFEE70E
:104460000321072028DF002805D0BFF34F8FEC6021
:10447000BFF34F8FFEE7072023DF002805D0BFF3EF
:104480004F8FEC60BFF34F8FFEE73E607049012015
:104490000860F0BC7047774BD978002928D070B5F8
:1044A000674C684D00280ED073494A686604724014
:1044B0004A600246007800280BD0002010700028C7
:1044C00009D06E4908E0BFF34F8FEC60BFF34F8F08
:1044D000FEE70120F2E76B49186901F068FB00284C
:1044E00005D0BFF34F8FEC60BFF34F8FFEE770BD79
:1044F0007047604B1979002928D070B5504C514D48
:1045000000280ED05C494A68260472404A60024680
:10451000007800280BD000201070002809D05749DF
:1045200008E0BFF34F8FEC60BFF34F8FFEE7012031
:10453000F2E75449586901F03AFB002805D0BFF36F
:104540004F8FEC60BFF34F8FFEE770BD704710B523
:104550000868002802D1087900F072FB10BD10B580
:104560000868002805D1434A01209070087900F0BE
:1045700067FB10BD70B53F480968314C314DC068CC
:1045800000290BD0012916D101F07AFB002812D0A6
:10459000BFF34F8FEC60BFF34F8FFEE70F21002278
:1045A000890401F004FB002805D0BFF34F8FEC60B5
:1045B000BFF34F8FFEE770BD10B5086800280FD01D
:1045C00001280DD002280BD102F095FE002807D05B
:1045D000BFF34F8F1B491A48C860BFF34F8FFEE7E8
:1045E00010BDBFF34F8F17491548C860BFF34F8FF9
:1045F000FEE7F8B5064601F071FE304601F04BF9D2
:104600003146214800F0C6FB3146204800F045FC09
:104610003146154800F0CEFC31461D4800F0ECFD57
:104620003188074C074D00271248192975D037DC0F
:10463000102944D0112973D0132970D1154A2BE0C9
:104640000400FA0500ED00E0007100400075004034
:1046500000700040B80B0000540B0000B40A0000CA
:104660008809000034080000842400200330000082
:10467000013400000420002000050050CD0C000093
:104680000073004033730000602400207024002079
:104690009C2400201C2000200021C0886FDF06E041
:1046A000392901D055295ED11321C08866DF002841
:1046B00059D0BFF34F8FEC60BFF34F8FFEE7FE483A
:1046C000406901F0DDFA002805D0BFF34F8FEC60A0
:1046D000BFF34F8FFEE7F84F002038710120F749F4
:1046E0008004C860B878002810D0386901F0C8FA92
:1046F000002805D0BFF34F8FEC60BFF34F8FFEE76C
:104700000020F8700120ED49C004C8600020B860A6
:10471000B088F88002F0E4FDC9E725E000E022E07F
:104720000646807800280FD1306901F0A9FA0028E8
:1047300005D0BFF34F8FEC60BFF34F8FFEE7012032
:10474000DE49F770C004C8600020C043F08002F06A
:1047500012F8002805D0BFF34F8FEC60BFF34F8FE6
:10476000FEE7FFF7F2FDF8BDB1790029FBD18168C2
:104770000429F6D106468760406901F081FA0028D5
:1047800005D0BFF34F8FEC60BFF34F8FFEE70020E3
:1047900030710120C94F8004F860306901F070FA6F
:1047A000002805D0BFF34F8FEC60BFF34F8FFEE7BB
:1047B0000020F0700120C004F8600320C04900040C
:1047C0000860486031DF72E7BFF34F8FBE49BD48D4
:1047D000C860BFF34F8FFEE770B5BA4DBA4EB64C06
:1047E000102807D0112826D0BFF34F8FF560BFF3F4
:1047F0004F8FFEE76079002813D00021B34800F006
:1048000060FD002812D0B249884213D0B1498842D5
:1048100010D005280ED0BFF34F8FF560BFF34F8F38
:10482000FEE70221A94800F04CFDEAE7607901218A
:104830004840607170BD206901F022FA002805D05F
:10484000BFF34F8FF560BFF34F8FFEE70020E0709E
:1048500001209A49C004C86070BD994988B00320FE
:104860008860C86000269C4B0722052130460096D0
:1048700001F0FFF8934C944D002805D0BFF34F8F03
:10488000EC60BFF34F8FFEE7944A0121944801F09A
:1048900065F9002805D0BFF34F8FEC60BFF34F8F51
:1048A000FEE7904A0021904801F058F9002805D011
:1048B000BFF34F8FEC60BFF34F8FFEE78B4A0021B1
:1048C0008B4801F04BF9002805D0BFF34F8FEC6007
:1048D000BFF34F8FFEE78749012002F0D4FD002887
:1048E00005D0BFF34F8FEC60BFF34F8FFEE700237F
:1048F000814A0221814802F0B0FC002805D0BFF3B4
:104900004F8FEC60BFF34F8FFEE76946112002F036
:1049100002FD002805D0BFF34F8FEC60BFF34F8F2F
:10492000FEE7FF2168460171FD2141717448039043
:10493000029668460178817101A802F041F90028C9
:1049400005D0BFF34F8FEC60BFF34F8FFEE76D4B89
:1049500050226D490D20009601F05CFC002805D026
:10496000BFF34F8FEC60BFF34F8FFEE71120694616
:1049700008710B2265A101A86CDF002805D0BFF3E8
:104980004F8FEC60BFF34F8FFEE70920800168DF97
:10499000002805D0BFF34F8FEC60BFF34F8FFEE7C9
:1049A000FF209130029669460396088142004A81B1
:1049B0008E81C88102A86ADF002805D0BFF34F8F1F
:1049C000EC60BFF34F8FFEE70727FF43384667DFF2
:1049D000002805D0BFF34F8FEC60BFF34F8FFEE789
:1049E000052000F0FCF8684600960770012001469B
:1049F0002031684641700020014668468170694652
:104A0000454800F07BF9002805D0BFF34F8FEC60DC
:104A1000BFF34F8FFEE7414800906946404800F0E1
:104A2000D1F9002805D0BFF34F8FEC60BFF34F8F53
:104A3000FEE73C4800903C480190029668460672AA
:104A40000120014620316846417201200146203193
:104A5000684681726946354800F055FA002805D04D
:104A6000BFF34F8FEC60BFF34F8FFEE71248012773
:104A700086702F4800900196029603960496684629
:104A80000771642101733946103141733946103181
:104A90008173002001466846C173394610310174A4
:104AA0006946244800F0B1FA002845D0BFF34F8F83
:104AB000EC60BFF34F8FFEE704200020000500509C
:104AC000400700500400FA0500ED00E09C2400209F
:104AD0000330000001340000D020002033440100E6
:104AE000102000209744010014200020F34401000E
:104AF000182000204024002066060000242000200A
:104B0000C9470100F3450100F02300204E6F726495
:104B100069635F50726F7800542400204F45010094
:104B2000602400205F4501006542010070240020E0
:104B30007545010084240020624846716248009057
:104B4000624801906946624800F042FB002805D0A7
:104B5000BFF34F8FEC60BFF34F8FFEE70520C0031C
:104B600000960190029003960496032105966846EC
:104B70000173C681077457480690684600F059FED5
:104B8000002805D0BFF34F8FEC60BFF34F8FFEE7D7
:104B900051491E2008808878E122384310400C30AB
:104BA000DF22104088700720C870102008714B4A1F
:104BB0000421012002F0FCFB002805D0BFF34F8F39
:104BC000EC60BFF34F8FFEE7FFF7BFFB3DDF002830
:104BD000FCD0BFF34F8FEC60BFF34F8FFEE701B502
:104BE00094B00720C04369463D4A08705168106878
:104BF00092681191109033491292002088603C21F4
:104C000001A802F0ECFD02200190012069464872E3
:104C1000888114A8049005910320088410A80990A5
:104C2000002101A800F08BFD002807D0BFF34F8FB3
:104C30002D492C48C860BFF34F8FFEE715B000BD6B
:104C4000F8B520490200274E274F284C284D086907
:104C50000DD0012A1DD0022A1AD101F011F8002826
:104C60002AD0BFF34F8FFE60BFF34F8FFEE7154989
:104C700000228A7001F004F8002805D0BFF34F8F9E
:104C8000FE60BFF34F8FFEE70E490020C870EC6056
:104C9000F8BDCA78002AFBD101224A70AC60CA7004
:104CA000144A154900F083FF0028F1D0BFF34F8F5D
:104CB000FE60BFF34F8FFEE702490020C870EC6032
:104CC000AC60F8BD04200020B94501006542010038
:104CD0009C240020E34501001C200020B17101004C
:104CE000347A01000400FA0500ED00E0000008003D
:104CF0000005005005200020CD0C0000F0B4054652
:104D000092B00E46012768468771204981802A4665
:104D100001A93846A0DF00282AD10390049005900D
:104D20000690079008906C460990217B022211435F
:104D30002173A77216492181009071782170B17892
:104D40006170A178F9221140891CE7221140B94312
:104D5000A17002A90C910E900D940F902787608787
:104D6000A7872B4610961888AB1C0CAA03A9A2DFB4
:104D700012B0F0BC704703B482B001216A461180C2
:104D8000408803AB0021A4DF04B070470418000082
:104D9000072A00000A88502A13D100B5891D0A8805
:104DA000C38883B09A420AD10A8B012A07D1002214
:104DB0000092897E6A46117102686946904703B085
:104DC00000BD704730B40446086892B0002845D052
:104DD000012520606846857128498180221D01A92E
:104DE0002846A0DF002836D10021049105910691C4
:104DF00007910891099168460A91027C04200243B8
:104E00006846027485721E4A028100200246684686
:104E1000009102700120024620326846427080787C
:104E2000F9221040801CE7221040420852006846D8
:104E300082700E910F91017302A80C9068460D903C
:104E400005874187858703A8234610909888A31D6E
:104E50000CAA04A9A2DF12B030BC704712B030BC5B
:104E60000720704718B401226C4622800B46C08888
:104E70006A460021A5DF18BC704700000218000038
:104E8000062A000018B401226C4622800B46408995
:104E90006A460021A5DF18BC704710B50B880022B8
:104EA00084B0102B0ED0112B12D0172B08D189797A
:104EB000002905D1694602920A73026802A9904747
:104EC00004B010BD694602920A7302A9026817E095
:104ED0000446487B0828F3D1029201206946888065
:104EE00003AB608901AA0021A5DF002805D0616815
:104EF0000029E5D0884704B010BD226802A92046E9
:104F0000904704B010BD70B40446086893B00D46D5
:104F1000002847D020606868012660606846867176
:104F2000224981802246083201A93046A0DF0028AC
:104F300035D10021049105910691079108910991BD
:104F400068460A91027C0A2002436846027486720F
:104F5000174A028100916A7A0270AA7A42708078B8
:104F6000F9221040801CE722104042085200684697
:104F700082700C910D910E910F9110912A7A02730B
:104F800002A80C9068460D9006874187868703A883
:104F90002346109018890A330CAA04A9A2DF13B083
:104FA00070BC704713B070BC072070470318000036
:104FB000062A000008B50A88102A1AD0112A1AD029
:104FC000502A1BD1027D002A18D0891D0A884389E6
:104FD0009A4213D10A8B022A10D10268002A0DD0FE
:104FE000CA7E8B7E11021943C907C90F07D0002161
:104FF00006E0898801E00021C943418208BD012102
:10500000009102686946904708BDF0B5054693B027
:10501000086828600020C043688208792875FF204E
:10502000287401270E4668468773654981812A1DC9
:1050300003A93846A0DF00287ED1287D002400285F
:105040000DD0012001461031684601940171717B39
:1050500041718179F9200140891C6846817105946C
:1050600006940794089409940A9469460B94087D61
:1050700002210843694608752A7DEF21002A02D0E3
:105080001022104300E008406A461075287D002871
:1050900000D001A80A90012268468272494B038120
:1050A0000094B37B0370F37B43708078F92318403E
:1050B000801CF72318400F463840410849006846D5
:1050C0008170317B017402A80C9068460E940F9495
:1050D0000D9002874487828704A81090A888AB1D92
:1050E0000CAA05A9A2DF002832D1B06800282DD073
:1050F000012069468872344808810094307C087029
:10510000002048708878F9210840801CF721084069
:105110003840400840006946887011A8B16800F026
:1051200045FB02A90C9169460E940F940D910887D6
:105130004C87888711A800E00AE010902A46E8888A
:105140000E320CA9A3DF002802D100E0EC8120463A
:1051500013B0F0BD33B486B02A216A4604461177F5
:10516000227C00202A2A23D001256846058221744A
:10517000E08807AB04AA0021A4DF002818D1608AC8
:105180001249884217D0207D002814D000210091B8
:1051900001910291684603910582E2880280857040
:1051A000818004A8029007A80390608A6946A6DF60
:1051B00008B030BC704708B030BC08207047000011
:1051C0000F180000192A000008290000FFFF000046
:1051D0000A68002A0ED00260496841600021C94374
:1051E00041810021018144480121817043490180AE
:1051F0000020704707207047F8B50446088810283B
:105200000AD011284ED0302812D0322820D1CA8896
:105210002046002A23D01CE088886081012069464E
:1052200088703748088060896A46012180DF09E07C
:10523000CA882046002A0CD10A89002A09D00E31DA
:10524000608982DF002803D06168002900D0884788
:10525000F8BD01210091026869469047F8BD083108
:105260000D880022002DF4DD234B9C781E880A2334
:1052700053435B181F79BC4210D15F88BE420DD1E9
:105280000A246243511889794907E2D55989018175
:1052900000210091026869469047F8BD521C954272
:1052A000E5DCD6E70020C043608120890028F4D0E7
:1052B0000220009022686946204690470020208105
:1052C000F8BD13B4018983B0002911D040890022B0
:1052D00000926C460192618002212170A28001211E
:1052E000E18004AB6946029387DF05B010BC7047CC
:1052F00005B010BC052070473C200020062A0000A5
:1053000002180000FFB585B00546022086460898C1
:105310000E9C0291009020780190002728883E463C
:1053200000283FDD6868B1004018028869460A829B
:1053300040884882002203A904A854DF00285CD1D9
:105340006846017B714520D1002F01D0002200E08A
:1053500002222078891841181F294DD8002F07D123
:10536000401CC0B2411C009B029A21701A540127B4
:10537000217800980A1803A904A854DF00283CD11A
:1053800069462078097B401820702888761CB04236
:10539000C8DC002F06D021780198019A081A0099DC
:1053A000401E8854079802901020864608980E9C4C
:1053B000009020780190002728883E46002842DD92
:1053C0006868B1004018028869460A8240884882AD
:1053D000002203A904A854DF00280ED16846017BEF
:1053E000714523D1002F01D0002200E00222207855
:1053F000891841181F2902D90C2009B0F0BD002FCF
:1054000007D1401CC1B2481C009B029A20705A541C
:105410000127217800980A1803A904A854DF00285E
:10542000EBD169462078097B401820702888761CCB
:10543000B042C5DC002F06D021780198019A081AE5
:105440000099401E8854002009B0F0BDF7B582B025
:1054500000260546167000681446002828D01D2036
:105460006946039F08802178B81C081869466DDFDB
:1054700000287DD12879002807D06946098888420C
:1054800003D269460880082000E009208446684667
:1054900002882178521C481C20707A54207861467A
:1054A000421C227039546846217800880818207000
:1054B000687900281CD02078039F001D1F287DD804
:1054C000684669DF002853D121780322481C2070E8
:1054D0007A5421781922481C20707A542178684621
:1054E0000088C9190870000A48702078801C207054
:1054F000298900291ED001208446EA680398002AE1
:105500007ED0227853189B1C1F2B57D81346521C51
:10551000491C2270C15422786746511C217087545F
:1055200023782A891818E96802F0FAF82078297A8D
:10553000401820702869002815D000214156227893
:105540008C46D01C03991F2838D8501C0223207089
:105550008B5422780A23501C20708B542378624687
:10556000581C2070CA54A88A00280BD0009400E070
:1055700076E02846062202211430039BFFF7C2FE84
:1055800006006DD1A88B002809D028460094072278
:1055900003211C30039BFFF7B5FE060060D1A88CE9
:1055A000002809D028460094152214212430039B9A
:1055B000FFF7A8FE060053D1E86A00E04FE000289C
:1055C00040D0217884468E46891D03981F2946D8ED
:1055D00061460B88062B13D31922D201724F9342D6
:1055E00001D9BB420CD161464988062908D39142B2
:1055F00001D9B94204D1BB4205D0B94203D000E081
:1056000080E08B427ED87146491C0523724621708A
:10561000835422781223511C2170835422786146CE
:10562000098812181170090A51702178891CCAB2B0
:1056300022706146498810180170090A417020786B
:10564000801C2070286B002830D0009000792378CF
:10565000801CC0B2811C5918039A1F2902D90C2042
:1056600005B0F0BD591C401C2170D0542178FF2397
:10567000481C2070535400982178008889180870BD
:10568000000A48702078801CC0B2207000998B8876
:10569000002B0BD0896800294BD080181A4602F0E5
:1056A0003FF80098217800790818207028462030AB
:1056B000017E00293AD000956A6B039E002A3BD0F8
:1056C00000270190002930D90098416B0C207843C5
:1056D0000D1828792178C01C705420781621401CA0
:1056E000C0B2207031542078401CC1B2217028888B
:1056F00089190870000A48702078801CC0B2207098
:10570000AA8800E015E0002A09D0A968002913D072
:10571000801902F005F82078297940182070019846
:105720007F1C007EFFB2B842CED80026304605B0BE
:10573000F0BD072005B0F0BD072005B0F0BD70B585
:105740000D4692B000216A4611700724117100289D
:1057500012D00189002905D0C168002902D009783A
:10576000490702D4204612B070BD02A9FFF76EFEB1
:105770000028F8D102AE00E00026002D0BD02889C9
:105780000028EFD101AA0AA92846FFF75FFE0028EA
:10579000E9D10AAA00E00022684603790178304680
:1057A00062DF12B070BD0000FFFF00000A780270D7
:1057B000497841700220704770B504460D4608468E
:1057C00001F08CFF2080656070BD000038B57B491A
:1057D0007B4A4888904219D00A787A4C521CD2B23F
:1057E0000A70217B0025914211D377494A88774975
:1057F0000B889A4202D349888A4207D9734965DFE8
:10580000002803D0A169002900D0884738BD217C39
:10581000002907D03B2166DF002803D0A1690029B9
:1058200000D0884761690029F0D068460095884714
:1058300038BD70B502463CCA62490E463CC6846912
:10584000436902698C614B610A6100685B4C002806
:105850000CD001882181418861818188A181C18822
:10586000E1815A486ADF00280ED103E057486BDF18
:10587000002809D10020C04360800020207001462C
:10588000534A544800F06AF970BD10B54B4840685F
:1058900000F0F6F910BDF8B54A49484BC9890788A8
:1058A0008C464A495B680D884C884649821C496889
:1058B0009E46102F2BD0112F49D0424B3F4E9B6854
:1058C0003678122F5DD0502F20D1801D028862457E
:1058D0001CD1028B022A19D1C27E807E12020243A1
:1058E000D007C00F43D038484088A84201D3A04217
:1058F0000CD9002E00D019460022704600F057F94E
:10590000002803D02F49896900291ED1F8BD83885A
:105910002A48438096890682D3894382168A8682E2
:10592000568AC68200220270264E60460028EDD1BB
:10593000AB4201D3A342E9D90022704600F037F907
:105940000028E3D0B1690029E0D08847F8BD0021E4
:105950001A48C943418000210170184600F090F9AF
:105960000028F3D0174989690029EED1F8BD7046A7
:1059700000F086F90028F9D0124989690029E4D19C
:10598000F8BD0E4897880782D7884782BC4617899A
:1059900087825789C782AC4501D3A445F0D9002E30
:1059A00000D019460022704600F001F90028E7D027
:1059B000044989690029C8D1F8BD000040200020B1
:1059C000FFFF0000A82400205020002048200020D5
:1059D000CD57010044200020F8B5FB4900200860A5
:1059E00048608860C860F94908604860F848C46841
:1059F000611C39D0C1780027491CCDB2022D00D1DD
:105A00000025F3488078854224D0F2484068F04968
:105A10000A69801A0602360A28204443EC48416885
:105A200062189168B14215D84369761ACF19546A41
:105A3000002B0AD0116AD0699847002808D0FF21AE
:105A4000E5A25331FEF7FEFB02E0D169106A8847F8
:105A5000601CE1D1DE48EC4AC17889005750C5701E
:105A60000120EA4900050860F8BD10B500F0F3F91F
:105A700010BDFFB581B00A9F1C4615460E4698071B
:105A800069D1002C67D00120E14940040860E14958
:105A900040108860E0498860E049012048602F207C
:105AA000FEF762FBCA482146476106704460002049
:105AB000002E13D00A46283A1039F30703D02832B3
:105AC000283110600870730808D090622827785435
:105AD00050325031106008705B1EF6D128214E43C1
:105AE0003119BB4C03226270A1600A46087018325B
:105AF00048708D704A6018232E465E430872B718AE
:105B000048728D72CF6008744874F2198D744A61BE
:105B10000021C943E160A070E0700121C04809057F
:105B20000160C0480268C023120A12021A430260D0
:105B3000BD480160A74901988860BC4A1068FF23EE
:105B40001B02984303239B0318431060486820619D
:105B5000002005B0F0BD072005B0F0BD70B49C4D2D
:105B60006C68002C12D0002A13D0002811D02D7898
:105B70000023002D07DD28265E43A659002E0BD0FA
:105B80005B1CAB42F7DB70BC0420704770BC082084
:105B9000704770BC07207047282501265D43665179
:105BA0002C19E2616160036070BC00207047F0B4A2
:105BB000874B5D68002D0CD01C78A04201D20529CE
:105BC00002D2F0BC07207047282444432E59012EEE
:105BD00002D0F0BC0820704764196468012C13D00F
:105BE0000026934D6C68E405E40D1DD0103C0DD5E6
:105BF00027073F0F083FBF08BF007D19ED69A407C5
:105C0000E40EE540AC090AE00E46EAE7A508894F34
:105C1000AD00ED192D68A407E40EE540AC09E4B22F
:105C2000012C26D0032C26D0022494469B68E20047
:105C3000D5186B78AA781C465B1C9A4200D10023C9
:105C40002A789A4219D018226F6854433A196B7017
:105C500013D00123136050605E4840681661D16024
:105C6000906060465061694918050860F0BC0020EA
:105C700070470024D9E70124D7E7F0BC042070471F
:105C8000534A5168002909D01378984201D307205C
:105C9000704728234343C958012901D00820704781
:105CA000F0B4634B59680424C905C90D00291BD001
:105CB00010390BD50D072D0F083DAD08AD00EB18C1
:105CC000DB698907C90ECB40990908E08B08594D5B
:105CD0009B005B191B688907C90ECB409909C9B2A3
:105CE00001291FD003291FD002219268C9008A18F8
:105CF000517895780B46491C8D4200D100211678C9
:105D000000258E4212D0182756687B43F318517035
:105D10000CD0022119605860C8043C49086028462C
:105D2000F0BC70470021E0E70121DEE72046F0BC2F
:105D3000704770B4264A5068002814D03C4B58680D
:105D4000C105C90D042000291ED010390ED50C073D
:105D5000240F083CA408A400E318DB698907C90ED6
:105D6000CB4099090BE0082070BC70478B08314C80
:105D70009B001B191B688907C90ECB409909C9B242
:105D8000012959D0032959D002219268C9008A18E3
:105D9000517894780B46491C8C4200D1002115782B
:105DA00000248D42E0D0182655687343EB185170DB
:105DB000DAD003201860001F586001201349000545
:105DC0000860204670BC704740110140001101403E
:105DD00058200020001501402E2E5C2E2E5C2E2E09
:105DE0005C2E2E5C2E2E5C536F757263655C617049
:105DF000705F636F6D6D6F6E5C6170705F74696D05
:105E000065722E63000000007020002000E200E0B8
:105E100080E100E040130140001301400010014008
:105E200080E200E014E400E000E100E010E400E0C3
:105E300000ED00E000E400E00021A6E70121A4E776
:105E4000E4494968016000207047401A0002000AD6
:105E5000106000207047F0B5002095B0C043DE49C7
:105E600005900B690993C8680B908A78CC78A24298
:105E700010D09400D94D521C2C59D2B204948A707F
:105E8000022A01D100228A70E2181202120A0A6163
:105E9000012201E000220492CF4910920F9049782C
:105EA00006914A1E0892D2B20792CB4A0029936803
:105EB0000A9352680C9260D014460E930799CA0058
:105EC0000E9955182B78697899424ED0182159436C
:105ED0006A685B1C5118AA78DBB29A4200D1002391
:105EE0000A68022A02D0032A3CD131E04E682821F8
:105EF000714309198C46097E002933D002460146B8
:105F0000471C21D0B14207D00A4628215143091924
:105F1000496A4F1CF6D117E0002F15D08A4203D1F1
:105F2000282670430019406A2826714309198F6892
:105F30007243496A121951624A1C05D02822514302
:105F400009198E68F2198A6000216246117609E00B
:105F5000411C07D000212822504300190176406AD5
:105F6000421CF8D169789942B0D1079A511EC9B242
:105F70000791002AA2D19849C86097480F99C06834
:105F8000884201D0012100E000210F9110990029E1
:105F900027D00023099D0499401C20D08E4A282038
:105FA000D468264646430C98301886688E4202D93B
:105FB000711A816013E0891BF3180026866006764B
:105FC000466AD6604269002A07D0EF183F023F0AAE
:105FD000C7600261059A42620594761CDED10120F9
:105FE0000F90059810907C48089AC0680699D2B224
:105FF0000590069200296ED077490C9B096907919C
:106000000A990E910699CA000E99551881E01099C7
:10601000491C06D0109A28215143C9184C6A109483
:106020001EE0297818224A436C68491CC9B2A4189A
:106030002970AA78914201D1002129706268282133
:1060400051432668C918012E67D10E7E002E64D1F7
:10605000A668CE60E6680E6126694E6164690C62CE
:10606000CE68079C5E4F341B2402240ABC4203D234
:106070000E69A4198C600AE0079CA41B24020E6917
:10608000240AA64201D9341B00E000248C600024BD
:10609000CC600C6101240C76A41E4C622821514373
:1060A000C9188C46411C14D061468C682821414394
:1060B000C91889688C420FD828214143C9188968BA
:1060C0000C1B28214143C9188C6061464862104668
:1060D0001FE010461DE02DE001460A9002E00A9103
:1060E000716AE41B4E1C0BD028264E43F618B76885
:1060F000A742F4D328274F43FF18BF683F1BB76060
:106100006646B460644661620A9928246143C918EE
:106110004A621099491C00D079E729786A7891423F
:10612000FAD1069A511EC9B20691002A00D069E739
:106130002949C86028490598CC68844202D10F9843
:10614000002836D00B9A2748274B651C33D02825CA
:106150006C430C9D6419A6681E4C64680F69E11BB2
:106160000D022D0AED1C521C0DD158601F494860CC
:1061700001211F4A400010601E4A10601E48016045
:106180002F20FDF7F1FFB54200D23546E819000295
:106190001A49000A08600F494968001B091B0902D7
:1061A0000002090A000A814203D90120144940046F
:1061B000086015B0F0BD0121124A490411609860D1
:1061C0000A4988600C49012048602F20FDF7CCFF68
:1061D00015B0F0BD001501405820002070200020AF
:1061E000FFFF7F0000000100401301400013014049
:1061F00080E200E000E100E00010014040150140B5
:1062000000E200E080E100E010B508461146FEF72C
:1062100021F810BD30B4029D8C070ED100290CD09E
:10622000204CE1602280A5601F49636010DF0028D8
:1062300001D1162023DF30BC704730BC07207047E7
:1062400038B5184C694620880880E06850DF05287A
:1062500009D0002803D015A25F21FDF7F3FF616884
:10626000E0688847EEE738BD38B50E4CA0680028D6
:1062700007D08047002803D00CA27121FDF7E2FF70
:1062800038BD208869460880E06850DF0528F7D0CF
:10629000002803D005A25F21FDF7D4FF6168E06804
:1062A0008847EEE778200020096201002E2E5C2E40
:1062B0002E5C2E2E5C2E2E5C2E2E5C536F75726320
:1062C000655C626C655C626C655F737461636B5F77
:1062D00068616E646C65722E63000000F0B5FB4D62
:1062E00004462878FA4E83B0002802D1B16808200D
:1062F0008847F84821880746503717297ED033DC75
:1063000010293DD014297AD1F34AE18811802189DE
:10631000518063899380A189D180E1891181238A89
:1063200053810022D24302606A780020002A67DD90
:10633000EA4C642343431B19DB8F8B427ED16421DB
:10634000484301196422E348FDF71EFF0022E44997
:10635000E88871DF002801D0B1688847DD48006E09
:1063600000286CD03946E8E1182969D052296BD150
:106370000168491C6AD0006E00286CD039466BE079
:10638000D249A288CA800021D24DC9432960072280
:10639000A11DD44801F0C4F900202866607BC10724
:1063A00014D04008072804D2C100CF48405607281F
:1063B00003DBB168032088471FE064214843C749D5
:1063C00064224118C348FDF7DFFE16E0BF480024F1
:1063D0008178002911DDC54DC5490091E0004019C3
:1063E00040680622401C009901F04AF9002811D0AB
:1063F000B648641C80788442F0DB02E033E023E09E
:1064000088E1B44C2068401C1ED0206E002804D0C7
:10641000394603E0E0002856CFE7002182B2AB48BE
:10642000C088A9DF002801D0B168884771680029B9
:106430000AD00120009020786A4602E066E17BE104
:106440007FE110716846884703B0F0BD0022114615
:10645000E888A9DF03E0002182B2E888A9DF0028EC
:1064600073D103B0F0BDA41D21780029F9D10168D2
:10647000491C04D09F4D2878002868D008E1934A31
:10648000E18855780020002D16DD944B64224243AC
:10649000D218D28F8A420CD164214843C118642299
:1064A0008C48FDF771FE8B48006E002808D03946F5
:1064B00007E0401CA842E9DB072D0AD3042037E19E
:1064C000002182B28148C088A9DF00283DD103B0F5
:1064D000F0BD804F32222146381D01F021F9E088BD
:1064E000F88700203D603866642068437B49774C1C
:1064F00040186D1C657064226439FDF745FE00F09C
:10650000CCFC00221146E088A9DF00281DD13846C6
:1065100000F04BFC042802D0002816D109E0716875
:10652000002912D00420009038786A46107168461D
:10653000884771680029CAD00020009038786A46E0
:1065400010716846884703B0F0BDF1E0FFE7697855
:10655000607881427ED1A978A078CA07C307D20F9C
:10656000DB0F9A4276D18A078307D20FDB0F9A425C
:1065700070D149074007C90FC00F81426AD1E9783D
:10658000E078CA07C307D20FDB0F9A4262D18A07AD
:106590008307D20FDB0F9A427AD149074007C90F10
:1065A000C00F814274D129792079CA07C307D20F5D
:1065B000DB0F9A426CD18A078307D20FDB0F9A4216
:1065C00066D14A074307D20FDB0F9A4260D10A0710
:1065D0000307D20FDB0F9A425AD1C906C006C90F72
:1065E000C00F814254D169796079CA07C307D20FBD
:1065F000DB0F9A424CD18A078307D20FDB0F9A42F6
:1066000046D14A074307D20FDB0F9A4240D10A070F
:106610000307D20FDB0F9A423AD1C906C006C90F51
:10662000C00F814234D1EA88E388A81DA11D9A4297
:106630002ED1827C8B7C9446D207DF07D20FFF0FCE
:10664000BA4225D1624652085B089A4220D1891C81
:10665000801C00E01CE001F013F8002818D1284647
:1066600021461A301A31102201F00AF800280FD101
:10667000284621462A302A3102780B789A4207D1DF
:106680000622491C401C00F0FBFF002800D15AE7FD
:10669000104D32222146281D01F042F8E088E8879B
:1066A000284600F082FB042826D0002801D0B168DB
:1066B000884771680029EAD00320009028786A464C
:1066C00010716846884703B0F0BD000088200020A4
:1066D000FC240020082500203E2500206C250020F9
:1066E000122500204A2500206028002028280020AC
:1066F0004B2500200C25002071680029D7D00420EC
:10670000009028786A4610716846D1E7401C904294
:1067100000DA0EE600221146E88871DF002801D079
:10672000B168884700221146E888A9DF0028CAD04E
:10673000B168884703B0F0BD002182B2E888A9DFC4
:10674000F4E7A2791107090F120901290FD00229D4
:10675000F0D1002AEED071680029EBD0022200921D
:1067600000786A4610716846884703B0F0BD012A78
:10677000F1D803B0F0BDF8B5FA4C207800285CD011
:10678000F9480068401C1DD00E20694608806A4602
:10679000F649E088AADF002850D1F3496A46086824
:1067A000C86412880A66002849DB6178884246DAA4
:1067B00064214843EE49642240186439FDF7E4FC43
:1067C00000F06BFB00221146104600F0ADFB69465D
:1067D00008806078002500280EDDE54E28466421FB
:1067E000484380196A464C2100F09EFB69460880A8
:1067F00060786D1C8542F1DB0888218988424CD085
:10680000DC4E307800F024FC002817D120710546BA
:106810006078002841DD01273F076420D4496843A0
:1068200046183869502180B200F0DBFF014620791C
:1068300081426DD9002804D010E00820F8BD07205F
:10684000F8BD00221146104600F06EFB2081C948B9
:10685000C949007800F0A4FC0028F1D1E0681322B7
:106860003146001D00F0CEFB0028E9D1C34A4C217F
:10687000304600F059FBC24920814118E06800F021
:10688000A6FB0028DCD1E0686D1C5030E060207968
:10689000401C207160788542BFDB00221146104603
:1068A00000F042FB694608806078002500280FDD73
:1068B000AF4E28466421484380194C306A4618215F
:1068C00000F032FB6946088060786D1C8542F0DB81
:1068D0000888618988424BD0A64E707800F0B8FBDA
:1068E0000028ADD1607105466078002840DDA04FDA
:1068F000284664214843C6194C3601200007006928
:10690000502180B200F06DFF01466079814201D8CC
:106910000420F8BD00280CD100221146104600F0DA
:1069200003FB608193489749407800F039FC0028C8
:10693000EFD1206906223146001D00F063FB0028DC
:10694000E7D1914A1821304600F0EEFA8C49608177
:106950004118206900F03BFB0028DAD120696D1C4A
:106960001C3020616079401C607160788542BFDB1B
:106970000020C043E08001467B480160C1640021E3
:1069800001660846F8BDF8B5774C206E002801D0A6
:106990000820F8BD0E2069460880724D6A4673498A
:1069A000E888AADF0028F4D121686846E1640088FD
:1069B00020666A7864235A436D4BD218734B17468E
:1069C000DE699D695C694C3772C7196AD1651066CA
:1069D0006F4800F026FAF8BD62480178002901D11D
:1069E0000820704770B5002444700471614D4471F3
:1069F000287800F02DFB002805D1687800F028FBEE
:106A0000002800D1204670BD10B50B46411C0CD0AB
:106A100054494978884208DA002B06D0642148435B
:106A200053494118487A400701D5072010BD42312B
:106A30000722184600F074FE002010BDF1B5494849
:106A4000C778002F41D000240721384600F0C9FE46
:106A500000235048504A002908DDE5002D18A60003
:106A60006D68641C5B1C95518B42F6DBB9422CDAD5
:106A7000E3001B18A5005B685351641CE3001B185E
:106A8000A5005B685351641CE3001B18A5005B68FC
:106A90005351641CE3001B18A5005B685351641C30
:106AA000E3001B18A5005B685351641CE3001B182E
:106AB000A5005B685351641CE3001B18A5005B68CC
:106AC000641CC91D5351B942D2DB26488578002D7C
:106AD00042D000240721284600F083FE00202F4AE0
:106AE000002909DD2E4BE600F318A6005B68641C44
:106AF000401C93518842F5DBA9422DDA2848E30077
:106B00001B18A6005B689351641CE3001B18A600C9
:106B10005B689351641CE3001B18A6005B689351EB
:106B2000641CE3001B18A6005B689351641CE3001F
:106B30001B18A6005B689351641CE3001B18A60099
:106B40005B689351641CE3001B18A6005B68641C1F
:106B5000C91D9351A942D2DB0098002D057121D0A7
:106B60000E4920E08820002008250020582500201C
:106B70006C250020FC240020942000209020002080
:106B80000000DE45982000209220002044250020AF
:106B90005425002060280020E0240020C424002088
:106BA0002828002000210098002F0160009807731A
:106BB00001D0CF4900E00021009881600020F8BD9D
:106BC0008168002909D0012212071269232392B299
:106BD0001B019A4203D20C20704707207047F0B582
:106BE000C44A436897B00068D3631164906364211A
:106BF000C14800F0F4FD0026BF48F643BF4C0660D4
:106C0000E680002565702571BD4F6571B878002854
:106C100009D0387800F01CFA00283DD1787800F0CF
:106C200017FA002838D1B74F6570207902AE0028D6
:106C30000CD100221146104600F076F92081B048B0
:106C4000B149007800F0ACFA00281CD1E16808686E
:106C5000020CBA4214D185B24C22091D3046FDF710
:106C600093FAAA4A4C21304600F05EF92081A842EE
:106C700011D12079401C2071E0685030E06006E0BE
:106C8000401C21D00B2005281ED0002804D160789C
:106C9000029D854202DD0B2017B0F0BD642029461D
:106CA00041439B484C220E1802A93046FDF76CFA6E
:106CB0006078854205D100213166491E401CF1648F
:106CC0006070C0B20728B0D3002000906078002820
:106CD0004DDD607902AE00280CD10022114610462D
:106CE00000F022F9608186488A49407800F058FA1D
:106CF000002822D12069834A01680B0C934219D1E4
:106D00008DB2011D8EC9039205970493029181698A
:106D1000406907910690804A1821304600F004F936
:106D20006081A842B7D16079401C607120691C3035
:106D3000206106E0491C1AD00B20052817D0002836
:106D4000AAD1617802988842A5DC64225043704A37
:106D5000801802AA6CCA07464C376CC7079B069A74
:106D60000366C2650098401C00908842B1DB6078E1
:106D700007210B1A002B11DD6421484364490026CA
:106D800042181146104660314C30751E15600E6079
:106D900005606432643164305B1EF7D100F07DF829
:106DA00001202070002017B0F0BD70B5054601200D
:106DB00000070069502180B200F013FD4F4C0146DE
:106DC0002079814201D8042070BD00280CD1002216
:106DD0001146104600F0A8F8208149484A49007839
:106DE00000F0DEF90028EFD1E06813222946001DEB
:106DF00000F008F90028E7D1444A4C21284600F069
:106E000093F8464920814118E06800F0E0F8002836
:106E1000DAD1E0685030E0602079401C2071002019
:106E200070BD70B50546012000070069502180B291
:106E300000F0D7FC314C01466079814201D8042032
:106E400070BD00280CD100221146104600F06CF8ED
:106E500060812B482F49407800F0A2F90028EFD13B
:106E6000206906222946001D00F0CCF80028E7D151
:106E7000294A1821284600F057F82849608141180E
:106E8000206900F0A4F80028DAD120691C302061C4
:106E90006079401C6071002070BD184A002090701D
:106EA000D07053780146002B20DDF0B46420184CDC
:106EB00048430019447A0778640709D5D478184DF7
:106EC000E600AF551E307519641C6860D47008E088
:106ED0009478144DE600AF5542307519641C686013
:106EE0009470491C9942E1DBF0BC70477047000088
:106EF000E0240020C4240020082500208820002051
:106F0000FC240020DE45000094200020902000207A
:106F10006C25002098200020922000200000DE45F3
:106F20006028002028280020F0B40546002A4CD014
:106F300010884A1E002A36DD01266B1ECC07F60794
:106F4000A4190ED0040A000204435B1C18786040A8
:106F50000406240F44402003604084B22006C00C85
:106F600060405E7852101ED0070A00020743774047
:106F70003806000F784006034640B0B20606F70C0C
:106F800047409B1C380A1C783F0238436040040687
:106F9000240F44402003604084B22006C00C5E7879
:106FA0006040521EE0D1491E0DD4020A0002024385
:106FB000685C50400106090F41400803484081B217
:106FC0000806C00C4840F0BC70477B48B1E7F0B4FD
:106FD0007A4C064620780D46002803D03DDF207805
:106FE0000028FBD1764901204860764A10680028C5
:106FF000FCD000203560486010680028FCD0F0BC50
:1070000000207047F7B5002496460646002A1CD992
:107010006A4D0198A10047582878002803D03DDF29
:1070200028780028FBD1664901204860654802683D
:10703000002AFCD0002237604A6001680029FCD099
:10704000641C361DE4B27445E3D3002003B0F0BDE8
:1070500010B4012109070969594A8CB2444302233B
:107060005360584801680029FCD0946001680029E9
:10707000FCD051689943516001680029FCD010BCD4
:1070800000207047F8B58C460121090709691746A9
:107090008EB246439100002260460096FFF744FFFF
:1070A0008646308881B2714551D0454D0220009A04
:1070B0006860444C21680029FCD0AA60216800293E
:1070C000FCD069688143696020680028FCD00836DC
:1070D0000022002F11DD01219000634618586960DD
:1070E0002368002BFCD030600020686020680028F6
:1070F000FCD0361D521CBA42EEDB304E30780028F0
:1071000003D03DDF30780028FBD101206860206883
:107110000028FCD0009847600020686020680028A4
:10712000FCD02949704647183078002803D03DDF4D
:1071300030780028FBD10120686020680028FCD04E
:10714000009807600020686020680028FCD00020BC
:10715000F8BDF8B50F46012109070969144689B23F
:1071600041430D68184E280C0004B04203D00020A3
:1071700010700520F8BD091D087820708200091DD7
:107180003846FDF701F82078002281003846FFF7E5
:10719000CBFE8019A84201D00520F8BD0020F8BD23
:1071A00001221207126992B2424300200A6070471E
:1071B0000249087070470000FFFF00009C2000207B
:1071C00000E5014000E401400000DE45F8B5614EF5
:1071D00004466946707800F02DFA00282CD10099F9
:1071E000F0680A460140B06890430843044023D049
:1071F0003078002500281FD901270C2071686843CA
:107200004218107839468140214210D09268002AF5
:107210000DD07369002B09D001461046984700280D
:1072200005D04DA22921FDF70DF800E090476D1C17
:107230003078EDB28542E0D3F8BD70B5454D0446D7
:107240000E46A869FEF71CFD002805D134432246EE
:107250002969A869FEF7ABFC70BD052A01D2072099
:107260007047F8B53B4C6060217063612261002279
:10727000E2604B1EA260DCB2002920D0424F1346D0
:107280000C2161430E18317875688900AD00C91969
:107290000D607578002D01D0012100E000213678C5
:1072A000B1400B43002D19D00021B1400A432146C3
:1072B000641EE4B20029E3D12648C36082602548F9
:1072C000324B8268C168324800F003F9002804D1CB
:1072D000304A00213048FEF741FCF8BD0121E4E7C7
:1072E0001C484168002901D10820704710B540783A
:1072F00000F02AF910BD10B5164C6068002808D0BF
:10730000607800F066F9002802D1A069FEF7B8FCA9
:1073100010BD082010BDF8B50E4C064660680D463D
:1073200000280ED06946607800F084F9002809D161
:1073300001220098B240024205D0E068104005D119
:1073400005E00820F8BDA068104000D0012028709A
:107350000020F8BDA02000202E2E5C2E2E5C2E2EAC
:107360005C2E2E5C2E2E5C536F757263655C6170B3
:10737000705F636F6D6D6F6E5C6170705F6275746E
:10738000746F6E2E63000000000700503B72010016
:10739000A1200020CD710100B82000201049012259
:1073A0000878504008704968002900D008477047A5
:1073B00030B405460A480C464260152027DF0028F5
:1073C0000BD12946152028DF002806D1152023DF00
:1073D000002802D12146032049DF30BC704700005D
:1073E000BC200020F8B59E48006900909D4900200F
:1073F000C86304469C48417800293FD903273F04CD
:107400001420214641439848426880688A18012127
:10741000A14001422CD0D068C3430098434010687B
:107420000340002001258540194629420FD0D66827
:107430003146294223D03946AE43D6608B4D860073
:1074400075192E68BE432E602E680E432E60401CB8
:107450002028E7D3009891681D4685432940009D68
:1074600050681D40284003460B4301D012699047E5
:107470007D48641C4078E4B28442C1D3F8BD012148
:1074800049042E43D9E7002901D08A0701D00720FB
:10749000704710B5744A0B4651601070002151704E
:1074A000916014214143184600F099F90020704979
:1074B000C04388606F48402101606F484268FF23E5
:1074C0001B049A430B04D21842606C4801600020F0
:1074D00010BDF0B4844664484568002D08D0002BE8
:1074E00009D044780678B44208D3F0BC0420704731
:1074F000F0BC08207047F0BC072070470F461426E8
:1075000017436643AF5176193361B26071606146CB
:107510000C70611C4170142100204C430122534B1C
:1075200003273F042E59114681400E4206D08100A8
:10753000C9180E68BE430E600E680E60401C2028FD
:10754000F0D3F0BC00207047F0B4474C6268002ACA
:1075500005D06178884205D3F0BC07207047F0BCA5
:10756000082070473F490025CD633D4909698C4695
:10757000A168002903D101233D4EDB07736001267A
:1075800086400E43142148438118A660CD60032530
:1075900000212D048618012413588C40234212D058
:1075A0006346234201D02B4604E00123F7685B04C5
:1075B0002743F7602D4C8F003C192768AF432760A5
:1075C00027681F432760491C2029E4D3F0BC002012
:1075D0007047F0B4244A5568002D05D05178884290
:1075E00005D3F0BC07207047F0BC08207047142278
:1075F00000214243012403273F04AE5823468B4019
:107600001E4207D0194E8B009B191E68BE431E6098
:107610001E681E60491C2029EFD3134984408868E6
:10762000A043886003D101201149C0078860F0BCE5
:10763000002070470C4B5A68002A04D05B789842AF
:1076400003D307207047082070471423584380183D
:10765000034A12690068024000200A607047000077
:107660000005005040610040C42000200007005089
:107670000063004080E200E000E400E000E100E0A0
:10768000034610B50B439B070FD1042A0DD308C83E
:1076900010C9121FA342F8D018BA21BA884201D9E2
:1076A000012010BD0020C04310BD002A03D0D30725
:1076B00003D0521C07E0002010BD03780C78401C5A
:1076C000491C1B1B07D103780C78401C491C1B1B51
:1076D00001D1921EF1D1184610BD000030B5441CF6
:1076E00003E00178401C00290DD08107F9D10B4B34
:1076F000DD0104C8D11A91432940FAD0001B0A06C3
:1077000003D0C01E30BD001B30BD0A0401D0801E56
:1077100030BD0902FCD0401E30BD00000101010156
:10772000F8B5042A2CD3830712D00B78491C0370B8
:10773000401C521E83070BD00B78491C0370401C61
:10774000521E830704D00B78491C0370401C521E44
:107750008B079B0F05D0C91ADF002023DE1B08C949
:107760000AE0FCF711FDF8BD1D4608C9FD401C46A6
:10777000B4402C4310C0121F042AF5D2F308C91AD2
:10778000521EF0D40B78491C0370401C521EEAD4E0
:107790000B78491C0370401C521EE4D40978017018
:1077A000F8BD01E004C0091F0429FBD28B0701D5F5
:1077B0000280801CC90700D00270704700290BD0DE
:1077C000C30702D00270401C491E022904D383075C
:1077D00002D50280801C891EE3E70022EEE700222A
:1077E000DFE7002203098B4273D3030A8B4258D38D
:1077F000030B8B423CD3030C8B4221D312E0034694
:107800000B437FD4002243088B4274D303098B427D
:107810005FD3030A8B4244D3030B8B4228D3030C60
:107820008B420DD3FF22090212BA030C8B4202D302
:107830001212090265D0030B8B4219D300E0090A2A
:10784000C30B8B4201D3CB03C01A5241830B8B4233
:1078500001D38B03C01A5241430B8B4201D34B031C
:10786000C01A5241030B8B4201D30B03C01A524181
:10787000C30A8B4201D3CB02C01A5241830A8B4206
:1078800001D38B02C01A5241430A8B4201D34B02EF
:10789000C01A5241030A8B4201D30B02C01A524153
:1078A000CDD2C3098B4201D3CB01C01A5241830907
:1078B0008B4201D38B01C01A524143098B4201D341
:1078C0004B01C01A524103098B4201D30B01C01A6C
:1078D0005241C3088B4201D3CB00C01A52418308E6
:1078E0008B4201D38B00C01A524143088B4201D313
:1078F0004B00C01A5241411A00D201465241104673
:1079000070475DE0CA0F00D04942031000D34042E7
:10791000534000229C4603098B422DD3030A8B421D
:1079200012D3FC22890112BA030A8B420CD38901BB
:1079300092118B4208D3890192118B4204D38901A1
:107940003AD0921100E08909C3098B4201D3CB01DF
:10795000C01A524183098B4201D38B01C01A524194
:1079600043098B4201D34B01C01A524103098B4298
:1079700001D30B01C01A5241C3088B4201D3CB0083
:10798000C01A524183088B4201D38B00C01A524166
:10799000D9D243088B4201D34B00C01A5241411A3D
:1079A00000D20146634652415B10104601D340426B
:1079B000002B00D54942704763465B1000D340421C
:1079C00001B50020C046C04602BD704770477047F1
:1079D000754600F023F8AE46050069465346C008D8
:1079E000C000854618B020B5FCF7FAFB60BC002744
:1079F0004908B6460026C0C5C0C5C0C5C0C5C0C57B
:107A0000C0C5C0C5C0C5403D49008D46704704464D
:107A1000C046C0462046FCF7A0FB00000048704767
:107A20009828002001491820ABBEFEE7260002007E
:107A3000704700000418010002180100031801003B
:107A4000607A010000200020D00000000441010005
:107A5000307B0100D02000202818000020410100C8
:107A60000024F400000000000000FFFF0000000000
:107A70000000000000000000000000000000000006
:107A8000000000001000000003000000D9470100C2
:107A90001100000003000000D947010000000000B1
:107AA00000000000000000000000000000000000D6
:107AB00000000000000000000000000000000000C6
:107AC00000000000000000000000000000000000B6
:107AD00000000000000000000000000000000000A6
:107AE0000000000000000000000000000000000096
:107AF0000000000000000000000000000000000086
:107B00000000000000000000000000000000000075
:107B10000000000000000000000000000000000065
:107B20000000000000000000000000000000000055
:04000005000140C1F5
:00000001FF
