:020000040001F9
:1040000018390020C1410100D3410100D541010010
:1040100000000000000000000000000000000000A0
:10402000000000000000000000000000D741010077
:104030000000000000000000D9410100DB41010048
:10404000DD410100DD410100DD410100DD410100F4
:10405000DD4101000000000091720100F9470100FC
:10406000DD410100DD410100DD410100DD410100D4
:10407000DD410100DD410100DD410100DD410100C4
:10408000DD41010079580100DD410100DD41010001
:104090000B5901004972010009610100DD41010075
:1040A000DD410100DD4101000000000000000000D2
:1040B0000000000000000000000000000000000000
:1040C00000F002F800F040F80CA030C808382418BE
:1040D0002D18A246671EAB4654465D46AC4201D140
:1040E00000F032F87E460F3E0FCCB6460126334232
:1040F00000D0FB1AA246AB46334318478438000071
:10410000A4380000103A02D378C878C1FAD8520710
:1041100001D330C830C101D504680C60704700007D
:104120000023002400250026103A01D378C1FBD8D3
:10413000520700D330C100D50B6070471FB5C04691
:10414000C0461FBD10B510BD03F0E3FB1146FFF7DD
:10415000F5FF00F042F903F0FBFB03B4FFF7F2FFB9
:1041600003BC03F0FFFB0000401E00BF00BF00BF08
:1041700000BF00BF00BF00BF00BF00BF00BF00BF47
:1041800000BFF1D17047000070B505460C461646D9
:1041900002E00FCC0FC5103E102EFAD2082E02D32B
:1041A00003CC03C5083E042E07D301CC01C5361F3E
:1041B00003E021782970641C6D1C761EF9D270BD55
:1041C0000A4802680F210A430260094880470948EB
:1041D0000047FEE7FEE7FEE7FEE7FEE7FEE700003A
:1041E00005480649064A074B704700002405004071
:1041F00009420100C140010018290020183900209F
:1042000018310020183100200848008D0006000FEA
:10421000012805D1074906484860C8130649886146
:10422000704707490548086070470000C00F00F05C
:10423000DFFF07C000050040006C00400024F400D0
:1042400000200020BFF34F8FFE49FD48C860BFF338
:104250004F8FFEE7BFF34F8FFA49F948C860BFF3AD
:104260004F8FFEE7BFF34F8FF649F548C860BFF3A5
:104270004F8FFEE7BFF34F8FF249F148C860BFF39D
:104280004F8FFEE710B500F01EFB10BD10B5EE48D5
:104290004188EE4800F0D8FE00280FD008280DD045
:1042A000EB4988420AD0EB49884207D0BFF34F8FD1
:1042B000E449E348C860BFF34F8FFEE710BDFF221B
:1042C0002D32E149102809D0112810D0BFF34F8FAB
:1042D000DC49DB48C860BFF34F8FFEE74888801C8D
:1042E00048804888904201D93C20488070474888DF
:1042F000801E488048883C28F8D24A807047F8B52C
:10430000074601F03BFF3946D04800F0D5FD39465D
:10431000D14800F0C3FC384600F0A9FF3888C84DEA
:10432000C84EC94C102813D0112836D0132847D0B6
:10433000192851D1B87900284ED100F03DFB31DF6A
:10434000002849D0BFF34F8FF560BFF34F8FFEE7D2
:1043500000F032FBB8882080B42060800121002268
:104360000904606801F073FB002805D0BFF34F8F8C
:10437000F560BFF34F8FFEE701210022C903A0685B
:1043800001F065FB002805D0BFF34F8FF560BFF348
:104390004F8FFEE702F0FAFE16E002F03CF900282B
:1043A00005D0BFF34F8FF560BFF34F8FFEE731DFCE
:1043B000002811D0BFF34F8FF560BFF34F8FFEE79A
:1043C000A64A002120886FDF002805D0BFF34F8F59
:1043D000F560BFF34F8FFEE7F8BD00269EB0A04BFF
:1043E000062204213046009601F093FA944C954D34
:1043F000002805D0BFF34F8FEC60BFF34F8FFEE76F
:10440000984A0121984801F0F9FA002805D0BFF335
:104410004F8FEC60BFF34F8FFEE7944A0121944821
:1044200001F0ECFA002805D0BFF34F8FEC60BFF32A
:104430004F8FFEE78F49012002F07BFF002805D057
:10444000BFF34F8FEC60BFF34F8FFEE700238A4A24
:1044500002218A4802F057FE002805D0BFF34F8F93
:10446000EC60BFF34F8FFEE76946102002F0A9FE13
:10447000002805D0BFF34F8FEC60BFF34F8FFEE7EE
:1044800001A9112002F09DFE002805D0BFF34F8F37
:10449000EC60BFF34F8FFEE7694608780979012782
:1044A0000843784006D00321754809040160416043
:1044B0007448076003A9112002F083FE002805D08C
:1044C000BFF34F8FEC60BFF34F8FFEE7FF216846CD
:1044D0000170FD2141706C48029001966846017B95
:1044E000817002F0BFFA002805D0BFF34F8FEC6057
:1044F000BFF34F8FFEE7654B502265490D200096B4
:1045000001F0D8FD002805D0BFF34F8FEC60BFF35A
:104510004F8FFEE75F4A0421012002F09FFE002832
:1045200005D0BFF34F8FEC60BFF34F8FFEE7112034
:10453000694608730A2258A103A86CDF002805D039
:10454000BFF34F8FEC60BFF34F8FFEE7554868DF36
:10455000002805D0BFF34F8FEC60BFF34F8FFEE70D
:10456000FF209130009669460196088042004A80FB
:104570008E80C88068466ADF002805D0BFF34F8F61
:10458000EC60BFF34F8FFEE706216846464A017094
:104590005168106892681191109012923C2101A804
:1045A00003F0BEF80220019068464772878103211C
:1045B0000490018410A80990002101A801F015F9C8
:1045C000002805D0BFF34F8FEC60BFF34F8FFEE79D
:1045D0002848282146618661C661066246623348E2
:1045E000067006720182B4214182032118A8017469
:1045F00012961396159610A8169606731CA814907A
:1046000001200146103110A801750020014610A8B4
:1046100041750020014610A8817501200146103126
:1046200010A8C1750020014610A8017612A90748FC
:1046300000F06AFC00283ED0BFF34F8FEC6037E0FB
:104640000400FA0500ED00E00420002054240020BE
:1046500003300000013400003C2400201020002022
:104660001421002085420100082000208D42010015
:104670000C200020142400206606000018200020D2
:10468000400700500005004075420100FF42010054
:10469000C42300205D7001004E6F726469635F483F
:1046A000524D0000410300007479010028240020CD
:1046B000BFF34F8FFEE70120014617961896199613
:1046C0001A96103118A81B9641720120014610312C
:1046D00018A881720020014618A8C1720120014665
:1046E000103118A8017307706421017217A93648A8
:1046F00000F0FFFA002805D0BFF34F8FEC60BFF346
:104700004F8FFEE74821684603F00AF82FA168465C
:1047100001F0A8F832A102A801F0A4F80120014696
:10472000103110A801710020014610A8417168469F
:1047300000F0AFF9002805D0BFF34F8FEC60BFF356
:104740004F8FFEE70520C00300960190029003966C
:1047500004960321059668460173234881896846BB
:10476000C181077421480690684600F04EFD00287C
:1047700005D0BFF34F8FEC60BFF34F8FFEE71C49AE
:104780001E2008808878E122384310400C30DF2258
:10479000104088700720C87010200871154863DF2A
:1047A000002805D0BFF34F8FEC60BFF34F8FFEE7BB
:1047B00000F0D2F83DDF0028FCD0BFF34F8FEC6053
:1047C000BFF34F8FFEE700003C2400204E6F726461
:1047D000696353656D69636F6E647563746F7200AE
:1047E00047656F7267650000542400206542010030
:1047F000102000202824002047480168002961D0AB
:1048000010B50021016045488068454A0121C0B2C9
:1048100051604B2109014843FF2102F083FF410011
:104820004018FF300F303F4980B2884201D36421E5
:1048300036E03D4A904209D9081A3A21484364219A
:1048400002F07EFF6421081AC1B229E0374988428C
:1048500009D9101A18214843A02102F071FF2A211A
:10486000081AC1B21CE0324A90420AD9081A0C2137
:104870004843FF212D3102F063FF1221081AC1B213
:104880000EE02C4988420AD9101A06214843FF211C
:10489000553102F055FF0621081AC1B200E000218F
:1048A000254800F0CBFA00280BD0082809D023496E
:1048B000884206D02249884203D022A25321FFF722
:1048C000C1FC10BD704770B52248012444601348F4
:1048D00018214160104E002535600460072027DF55
:1048E000002803D017A26921FFF7ACFC03210720A1
:1048F00028DF002803D013A26C21FFF7A3FC0720B8
:1049000023DF002803D00FA26F21FFF79BFC356047
:104910000348046070BD0000007100400075004055
:1049200000700040B80B0000540B0000B40A0000F7
:1049300088090000340800003C24002003300000F7
:10494000013400002E2E5C626174746572792E63EE
:10495000000000000073004010B51C4C1C492246AA
:10496000002044DF002803D01AA25321FFF76AFC7D
:10497000012042DF002803D016A25821FFF762FC75
:10498000174800214160816009210161154901201A
:10499000C860164B144A1A60154A1060164A154B27
:1049A000136100BF00BF00BF2060144B136100BF44
:1049B00000BF00BF086010BD0F4900200861094911
:1049C000012048600E498004C860704700600040C4
:1049D000409100402E2E5C6C65642E630000000048
:1049E0000095004000900040841E0000409500406B
:1049F00000920040031F0200006500400312030004
:104A000000050050F0B58FB01D4614460E00074655
:104A100004D180A269210020FFF714FC002C04D1EE
:104A20007CA26A210020FFF70DFC0020009001907D
:104A30000290039004900590694606900A7802213E
:104A40000A4369460A70012208A98A7069460F84E0
:104A500007902A780A776A784A77897FF922114085
:104A6000891CE72211404A08520069468A7708A942
:104A7000099107A90A910B900C9069468C85C8850D
:104A80000C8671480D9609AA0088149BA2DF0FB00E
:104A9000F0BD30B585B004460120694688716B4889
:104AA0008880694A01A90120A0DF00287ED12288E0
:104AB00025464435002A08D0654800902B466548B5
:104AC0006168FFF79FFF002870D12289002A09D072
:104AD0006148009003202B460003E168FFF792FF36
:104AE000002863D1228A002A08D05C4800902B4617
:104AF0005B486169FFF786FF002857D1228B002AA7
:104B000008D0584800902B465748E169FFF77AFFD4
:104B100000287CD1228C002A08D0544800902B46D3
:104B20005348616AFFF76EFF002870D1228D002A7A
:104B300008D0504800902B464F48E16AFFF762FFCB
:104B4000002864D1228E002A08D04C4800902B46C1
:104B50004B48616BFFF756FF002858D1A06B002827
:104B60002BD0027869460A720188FF221202114096
:104B70000A0A69464A72FF220168120411400A0CAF
:104B800069468A7201682B460A0E6946CA72027922
:104B90000A73027A4A7301890A0A69468A7380682D
:104BA000000CC8733748082202A900E02FE00090EB
:104BB0003548FFF727FF002829D1E06B002809D0EE
:104BC00032490091027901682B463148FFF71AFFFC
:104BD00000281CD1206C002818D0027869460A727F
:104BE00042884A72120A8A728288CA72120A0A7348
:104BF000C0884873000A8873264800902B46072215
:104C000002A92548FFF7FEFE002800D1002005B0CC
:104C100030BD00002E2E5C2E2E5C2E2E5C2E2E5CC7
:104C20002E2E5C536F757263655C626C655C626CA2
:104C3000655F73657276696365735C626C655F64FA
:104C400069732E6300000000302000200A18000065
:104C500032200020292A00003A2000204220002093
:104C6000242A00004A200020252A0000522000208B
:104C7000272A00005A200020262A00006220002057
:104C8000282A00006A200020232A00007220002029
:104C90002A2A00007A200020502A000008B50A883D
:104CA000102A1AD0112A1AD0502A1BD1027D002AAC
:104CB00018D0891D0A8843899A4213D10A8B022A87
:104CC00010D10268002A0DD0CA7E8B7E11021943D2
:104CD000C907C90F07D0002106E0898801E000213B
:104CE000C943418208BD012100910268694690478D
:104CF00008BDF0B5054693B0086828600020C043A1
:104D0000688208792875FF20287401270E466846B6
:104D10008773654981812A1D03A93846A0DF0028D1
:104D20007ED1287D002400280DD0012001461031BD
:104D3000684601940171717B41718179F9200140CC
:104D4000891C684681710594069407940894099417
:104D50000A9469460B94087D022108436946087548
:104D60002A7DEF21002A02D01022104300E00840E3
:104D70006A461075287D002800D001A80A900122FB
:104D800068468272494B03810094B37B0370F37BC6
:104D900043708078F9231840801CF72318400F4691
:104DA00038404108490068468170317B017402A88F
:104DB0000C9068460E940F940D900287448782876A
:104DC00004A81090A888AB1D0CAA05A9A2DF002892
:104DD00032D1B06800282DD001206946887234484D
:104DE00008810094307C0870002048708878F92190
:104DF0000840801CF72108403840400840006946C0
:104E0000887011A8B16800F027FD02A90C916946CD
:104E10000E940F940D9108874C87888711A800E0A5
:104E20000AE010902A46E8880E320CA9A3DF002879
:104E300002D100E0EC81204613B0F0BD33B486B05F
:104E40002A216A4604461177227C00202A2A23D090
:104E50000125684605822174E08807AB04AA002179
:104E6000A4DF002818D1608A1249884217D0207D1B
:104E7000002814D00021009101910291684603910D
:104E80000582E28802808570818004A8029007A8CC
:104E90000390608A6946A6DF08B030BC704708B04E
:104EA00030BC0820704700000F180000192A0000CD
:104EB00008290000FFFF000008B50A88102A17D053
:104EC000112A17D0502A18D1891D0A8883899A423D
:104ED00013D10A8B022A10D10268002A0DD0CA7E93
:104EE0008B7E11021943C907C90F07D0002106E0C4
:104EF000898801E00021C943018408BD0121009196
:104F000002686946904708BDF0B5044697B0086846
:104F10002060087960710020C04320840025222091
:104F200005554C200553012708A80E46877299495C
:104F300068460185A21D0AA93846A0DF00287DD158
:104F4000012001461031684607950177317B417792
:104F5000817FF9221140891C817701950095029586
:104F60000395049506950178102001436846017069
:104F700007A8059008A88771874968468184089525
:104F8000717B08A80170B17B41708178E7201140E6
:104F9000891C0140394308A8817009A80B9008A812
:104FA0000C900D950E950F9512AA0021204600F049
:104FB000ABF80146684681861421C586018712A890
:104FC0000F902346E08808330BAA6946A2DF002829
:104FD00038D1B068002834D003950495059506951E
:104FE0000795089568460995017B022001436846AC
:104FF00001738771694981800095F17B0170317C73
:1050000041708078F9210840801CE7210840410860
:1050100049006846817001A80C9068460E950F956E
:1050200010950D90078745878787B06823461090B5
:10503000D88810330CAA03A9A2DF00E002E0002800
:1050400000D1002017B0F0BD30B50546028C5448A1
:105050008BB082421FD006AA284600F055F8694658
:1050600004460880002002900390049005902A894D
:105070000A8101228A72888106A804910590288CF1
:1050800002A9A6DF002804D169460988A14200D000
:105090000C200BB030BD08200BB030BD70B50546FC
:1050A00004464035A8890E46142807D12622A118A7
:1050B000881E02F0EFFAA889401EA88180B2410044
:1050C0000919401CA8818E8470BD40308089142845
:1050D00001D00020704701207047028C304B9A426B
:1050E00002D1417100207047082070472030817044
:1050F000704703B482B001216A461180008A03AB75
:105100000021A4DF04B07047F7B542790026002AD9
:1051100000D004262222135C0222002B00D016436A
:10512000CBB2FF2907D901221643029A090A53700C
:105130009170032502E0029902254B700446403429
:10514000A189002901D0102216430027002919DD6A
:10515000AA1C142A09D989B2C91B4A007900091866
:105160002431243002F096FA0CE07900029B0918F1
:10517000898C5B191970090A5970A1897F1CD5B2F5
:10518000B942E5DCA089C01BA081029806702846C0
:1051900003B0F0BD0D180000372A0000382A0000C7
:1051A000FFFF000038B57B497B4A4888904219D000
:1051B0000A787A4C521CD2B20A70217B00259142A7
:1051C00011D377494A8877490B889A4202D3498894
:1051D0008A4207D9734965DF002803D0A1690029F5
:1051E00000D0884738BD217C002907D03B2166DFED
:1051F000002803D0A169002900D0884761690029EF
:10520000F0D068460095884738BD70B502463CCA64
:1052100062490E463CC68469436902698C614B61F0
:105220000A6100685B4C00280CD00188218141880C
:1052300061818188A181C188E1815A486ADF0028A3
:105240000ED103E057486BDF002809D10020C0438E
:105250006080002020700146534A544800F0CEFB85
:1052600070BD10B54B48406800F05AFC10BDF8B551
:105270004A49484BC98907888C464A495B680D886A
:105280004C884649821C49689E46102F2BD0112F0E
:1052900049D0424B3F4E9B683678122F5DD0502F3D
:1052A00020D1801D028862451CD1028B022A19D1AF
:1052B000C27E807E12020243D007C00F43D038481E
:1052C0004088A84201D3A0420CD9002E00D0194634
:1052D0000022704600F0BBFB002803D02F498969EB
:1052E00000291ED1F8BD83882A484380968906820A
:1052F000D3894382168A8682568AC6820022027029
:10530000264E60460028EDD1AB4201D3A342E9D935
:105310000022704600F09BFB0028E3D0B169002911
:10532000E0D08847F8BD00211A48C94341800021D8
:105330000170184600F0F4FB0028F3D01749896982
:105340000029EED1F8BD704600F0EAFB0028F9D044
:10535000124989690029E4D1F8BD0E48978807826F
:10536000D7884782BC46178987825789C782AC4550
:1053700001D3A445F0D9002E00D019460022704672
:1053800000F065FB0028E7D0044989690029C8D1ED
:10539000F8BD000084200020FFFF0000A4240020AE
:1053A000942000208C200020A5510100882000209E
:1053B000FFB585B005460220864608980E9C0291EE
:1053C000009020780190002728883E4600283FDD85
:1053D0006868B1004018028869460A82408848829D
:1053E000002203A904A854DF00285CD16846017B91
:1053F000714520D1002F01D0002200E00222207848
:10540000891841181F294DD8002F07D1401CC0B260
:10541000411C009B029A21701A54012721780098A0
:105420000A1803A904A854DF00283CD16946207853
:10543000097B401820702888761CB042C8DC002FF9
:1054400006D021780198019A081A0099401E8854C4
:10545000079802901020864608980E9C00902078AD
:105460000190002728883E46002842DD6868B10088
:105470004018028869460A8240884882002203A9AF
:1054800004A854DF00280ED16846017B714523D162
:10549000002F01D0002200E0022220788918411854
:1054A0001F2902D90C2009B0F0BD002F07D1401CE4
:1054B000C1B2481C009B029A20705A5401272178DF
:1054C00000980A1803A904A854DF0028EBD1694604
:1054D0002078097B401820702888761CB042C5DCF3
:1054E000002F06D021780198019A081A0099401ED1
:1054F0008854002009B0F0BDF7B582B000260546FB
:10550000167000681446002828D01D206946039FA5
:1055100008802178B81C081869466DDF00287DD105
:105520002879002807D069460988884203D269464D
:105530000880082000E00920844668460288217817
:10554000521C481C20707A5420786146421C2270FC
:105550003954684621780088081820706879002836
:105560001CD02078039F001D1F287DD8684669DF66
:10557000002853D121780322481C20707A542178C6
:105580001922481C20707A54217868460088C9196D
:105590000870000A48702078801C20702989002932
:1055A0001ED001208446EA680398002A7ED0227823
:1055B00053189B1C1F2B57D81346521C491C227092
:1055C000C15422786746511C2170875423782A8958
:1055D0001818E96801F0FAFF2078297A401820703D
:1055E0002869002815D00021415622788C46D01C0D
:1055F00003991F2838D8501C022320708B5422781E
:105600000A23501C20708B5423786246581C20704B
:10561000CA54A88A00280BD0009400E076E02846FF
:10562000062202211430039BFFF7C2FE06006DD153
:10563000A88B002809D028460094072203211C309B
:10564000039BFFF7B5FE060060D1A88C002809D0A7
:1056500028460094152214212430039BFFF7A8FE4E
:10566000060053D1E86A00E04FE0002840D02178DE
:1056700084468E46891D03981F2946D861460B88AB
:10568000062B13D31922D201724F934201D9BB4288
:105690000CD161464988062908D3914201D9B94203
:1056A00004D1BB4205D0B94203D000E080E08B4278
:1056B0007ED87146491C0523724621708354227896
:1056C0001223511C217083542278614609881218D4
:1056D0001170090A51702178891CCAB22270614682
:1056E000498810180170090A41702078801C2070C8
:1056F000286B002830D0009000792378801CC0B23D
:10570000811C5918039A1F2902D90C2005B0F0BD3D
:10571000591C401C2170D0542178FF23481C207054
:10572000535400982178008889180870000A48703E
:105730002078801CC0B2207000998B88002B0BD081
:10574000896800294BD080181A4601F03FFF009865
:10575000217800790818207028462030017E002921
:105760003AD000956A6B039E002A3BD00027019037
:10577000002930D90098416B0C2078430D18287906
:105780002178C01C705420781621401CC0B22070B3
:1057900031542078401CC1B22170288889190870C2
:1057A000000A48702078801CC0B22070AA8800E0EF
:1057B00015E0002A09D0A968002913D0801901F04A
:1057C00005FF207829794018207001987F1C007E01
:1057D000FFB2B842CED80026304605B0F0BD072053
:1057E00005B0F0BD072005B0F0BD70B50D4692B014
:1057F00000216A46117007241171002812D0018916
:10580000002905D0C168002902D00978490702D4CF
:10581000204612B070BD02A9FFF76EFE0028F8D135
:1058200002AE00E00026002D0BD028890028EFD121
:1058300001AA0AA92846FFF75FFE0028E9D10AAAB3
:1058400000E00022684603790178304662DF12B03A
:1058500070BD0000FFFF00000A78027049784170B7
:105860000220704770B504460D46084601F08CFED4
:105870002080656070BD0000F8B5FB49002008601D
:1058800048608860C860F94908604860F848C468A2
:10589000611C39D0C1780027491CCDB2022D00D13E
:1058A0000025F3488078854224D0F2484068F049CA
:1058B0000A69801A0602360A28204443EC484168E7
:1058C00062189168B14215D84369761ACF19546AA3
:1058D000002B0AD0116AD0699847002808D0FF2110
:1058E000E5A25331FEF7AEFC02E0D169106A8847A9
:1058F000601CE1D1DE48EC4AC17889005750C57080
:105900000120EA4900050860F8BD10B500F0F3F980
:1059100010BDFFB581B00A9F1C4615460E4698077C
:1059200069D1002C67D00120E14940040860E149B9
:1059300040108860E0498860E049012048602F20DD
:10594000FEF712FCCA4821464761067044600020F9
:10595000002E13D00A46283A1039F30703D0283214
:10596000283110600870730808D090622827785496
:1059700050325031106008705B1EF6D128214E4322
:105980003119BB4C03226270A1600A4608701832BC
:1059900048708D704A6018232E465E430872B7180F
:1059A00048728D72CF6008744874F2198D744A6120
:1059B0000021C943E160A070E0700121C0480905E1
:1059C0000160C0480268C023120A12021A43026032
:1059D000BD480160A74901988860BC4A1068FF2350
:1059E0001B02984303239B031843106048682061FF
:1059F000002005B0F0BD072005B0F0BD70B49C4D8F
:105A00006C68002C12D0002A13D0002811D02D78F9
:105A10000023002D07DD28265E43A659002E0BD05B
:105A20005B1CAB42F7DB70BC0420704770BC0820E5
:105A3000704770BC07207047282501265D436651DA
:105A40002C19E2616160036070BC00207047F0B403
:105A5000874B5D68002D0CD01C78A04201D205292F
:105A600002D2F0BC07207047282444432E59012E4F
:105A700002D0F0BC0820704764196468012C13D070
:105A80000026934D6C68E405E40D1DD0103C0DD547
:105A900027073F0F083FBF08BF007D19ED69A40726
:105AA000E40EE540AC090AE00E46EAE7A508894F96
:105AB000AD00ED192D68A407E40EE540AC09E4B291
:105AC000012C26D0032C26D0022494469B68E200A9
:105AD000D5186B78AA781C465B1C9A4200D100232B
:105AE0002A789A4219D018226F6854433A196B7079
:105AF00013D00123136050605E4840681661D16086
:105B0000906060465061694918050860F0BC00204B
:105B100070470024D9E70124D7E7F0BC0420704780
:105B2000534A5168002909D01378984201D30720BD
:105B3000704728234343C958012901D008207047E2
:105B4000F0B4634B59680424C905C90D00291BD062
:105B500010390BD50D072D0F083DAD08AD00EB1822
:105B6000DB698907C90ECB40990908E08B08594DBC
:105B70009B005B191B688907C90ECB409909C9B204
:105B800001291FD003291FD002219268C9008A1859
:105B9000517895780B46491C8D4200D1002116782A
:105BA00000258E4212D0182756687B43F318517097
:105BB0000CD0022119605860C8043C49086028468E
:105BC000F0BC70470021E0E70121DEE72046F0BC91
:105BD000704770B4264A5068002814D03C4B58686F
:105BE000C105C90D042000291ED010390ED50C079F
:105BF000240F083CA408A400E318DB698907C90E38
:105C0000CB4099090BE0082070BC70478B08314CE1
:105C10009B001B191B688907C90ECB409909C9B2A3
:105C2000012959D0032959D002219268C9008A1844
:105C3000517894780B46491C8C4200D1002115788C
:105C400000248D42E0D0182655687343EB1851703C
:105C5000DAD003201860001F5860012013490005A6
:105C60000860204670BC704740110140001101409F
:105C70009C200020001501402E2E5C2E2E5C2E2E26
:105C80005C2E2E5C2E2E5C536F757263655C6170AA
:105C9000705F636F6D6D6F6E5C6170705F74696D66
:105CA00065722E6300000000B420002000E200E0D6
:105CB00080E100E04013014000130140001001406A
:105CC00080E200E014E400E000E100E010E400E025
:105CD00000ED00E000E400E00021A6E70121A4E7D8
:105CE000E4494968016000207047401A0002000A38
:105CF000106000207047F0B5002095B0C043DE4929
:105D000005900B690993C8680B908A78CC78A242F9
:105D100010D09400D94D521C2C59D2B204948A70E0
:105D2000022A01D100228A70E2181202120A0A61C4
:105D3000012201E000220492CF4910920F9049788D
:105D400006914A1E0892D2B20792CB4A0029936864
:105D50000A9352680C9260D014460E930799CA00B9
:105D60000E9955182B78697899424ED018215943CD
:105D70006A685B1C5118AA78DBB29A4200D10023F2
:105D80000A68022A02D0032A3CD131E04E68282159
:105D9000714309198C46097E002933D00246014619
:105DA000471C21D0B14207D00A4628215143091986
:105DB000496A4F1CF6D117E0002F15D08A4203D153
:105DC000282670430019406A2826714309198F68F4
:105DD0007243496A121951624A1C05D02822514364
:105DE00009198E68F2198A6000216246117609E06D
:105DF000411C07D000212822504300190176406A37
:105E0000421CF8D169789942B0D1079A511EC9B2A3
:105E10000791002AA2D19849C86097480F99C06895
:105E2000884201D0012100E000210F911099002942
:105E300027D00023099D0499401C20D08E4A282099
:105E4000D468264646430C98301886688E4202D99C
:105E5000711A816013E0891BF318002686600676AC
:105E6000466AD6604269002A07D0EF183F023F0A0F
:105E7000C7600261059A42620594761CDED101205A
:105E80000F90059810907C48089AC0680699D2B285
:105E90000590069200296ED077490C9B09690791FD
:105EA0000A990E910699CA000E99551881E0109929
:105EB000491C06D0109A28215143C9184C6A1094E5
:105EC0001EE0297818224A436C68491CC9B2A418FC
:105ED0002970AA78914201D1002129706268282195
:105EE00051432668C918012E67D10E7E002E64D159
:105EF000A668CE60E6680E6126694E6164690C6230
:105F0000CE68079C5E4F341B2402240ABC4203D295
:105F10000E69A4198C600AE0079CA41B24020E6978
:105F2000240AA64201D9341B00E000248C6000241E
:105F3000CC600C6101240C76A41E4C6228215143D4
:105F4000C9188C46411C14D061468C6828214143F5
:105F5000C91889688C420FD828214143C91889681B
:105F60000C1B28214143C9188C60614648621046C9
:105F70001FE010461DE02DE001460A9002E00A9164
:105F8000716AE41B4E1C0BD028264E43F618B768E6
:105F9000A742F4D328274F43FF18BF683F1BB760C1
:105FA0006646B460644661620A9928246143C91850
:105FB0004A621099491C00D079E729786A789142A1
:105FC000FAD1069A511EC9B20691002A00D069E79B
:105FD0002949C86028490598CC68844202D10F98A5
:105FE000002836D00B9A2748274B651C33D028252C
:105FF0006C430C9D6419A6681E4C64680F69E11B14
:106000000D022D0AED1C521C0DD158601F4948602D
:1060100001211F4A400010601E4A10601E480160A6
:106020002F20FEF7A1F8B54200D23546E81900024C
:106030001A49000A08600F494968001B091B090238
:106040000002090A000A814203D9012014494004D0
:10605000086015B0F0BD0121124A49041160986032
:106060000A4988600C49012048602F20FEF77CF81F
:1060700015B0F0BD001501409C200020B420002088
:10608000FFFF7F00000001004013014000130140AA
:1060900080E200E000E100E0001001404015014016
:1060A00000E200E080E100E010B508461146FEF78E
:1060B000D1F810BD30B4029D8C070ED100290CD050
:1060C000204CE1602280A5601F49636010DF00283A
:1060D00001D1162023DF30BC704730BC0720704749
:1060E00038B5184C694620880880E06850DF0528DC
:1060F00009D0002803D015A25F21FEF7A3F861683C
:10610000E0688847EEE738BD38B50E4CA068002837
:1061100007D08047002803D00CA27121FEF792F827
:1061200038BD208869460880E06850DF0528F7D030
:10613000002803D005A25F21FEF784F86168E068BB
:106140008847EEE7BC200020A96001002E2E5C2EBF
:106150002E5C2E2E5C2E2E5C2E2E5C536F75726381
:10616000655C626C655C626C655F737461636B5FD8
:1061700068616E646C65722E63000000F0B5FB4DC3
:1061800004462878FA4E83B0002802D1B16808206E
:106190008847F84821880746503717297ED033DCD6
:1061A00010293DD014297AD1F34AE1881180218940
:1061B000518063899380A189D180E1891181238AEB
:1061C00053810022D24302606A780020002A67DDF2
:1061D000EA4C682343431B19DB8F8B427ED1682135
:1061E000484301196822E348FDF7CEFF0022E44945
:1061F000E88871DF002801D0B1688847DD48406E2B
:1062000000286CD03946E8E1182969D052296BD1B1
:106210000168491C6AD0406E00286CD039466BE09A
:10622000D249A288CA800021D24DC94329600722E1
:10623000A11DD44801F0CAF900206866607BC1073F
:1062400014D04008072804D2C100CF484056072880
:1062500003DBB168032088471FE068214843C74932
:1062600068224118C348FDF78FFF16E0BF4800249D
:106270008178002911DDC54DC5490091E000401924
:1062800040680622401C009901F050F9002811D006
:10629000B648641C80788442F0DB02E033E023E0FF
:1062A00088E1B44C2068401C1ED0606E002804D0E9
:1062B000394603E0E0002856CFE7002182B2AB4820
:1062C000C088A9DF002801D0B1688847716800291B
:1062D0000AD00120009020786A4602E066E17BE166
:1062E0007FE110716846884703B0F0BD0022114677
:1062F000E888A9DF03E0002182B2E888A9DF00284E
:1063000073D103B0F0BDA41D21780029F9D1016833
:10631000491C04D09F4D2878002868D008E1934A92
:10632000E18855780020002D16DD944B6822424309
:10633000D218D28F8A420CD168214843C1186822F2
:106340008C48FDF721FF8B48406E002808D0394665
:1063500007E0401CA842E9DB072D0AD3042037E1FF
:10636000002182B28148C088A9DF00283DD103B056
:10637000F0BD804F32222146381D01F027F9E08818
:10638000F88700203D607866682068437B49774C39
:1063900040186D1C657068226839FDF7F5FE00F045
:1063A000D2FC00221146E088A9DF00281DD1384622
:1063B00000F051FC042802D0002816D109E07168D1
:1063C000002912D00420009038786A46107168467F
:1063D000884771680029CAD00020009038786A4642
:1063E00010716846884703B0F0BDF1E0FFE76978B7
:1063F000607881427ED1A978A078CA07C307D20FFE
:10640000DB0F9A4276D18A078307D20FDB0F9A42BD
:1064100070D149074007C90FC00F81426AD1E9789E
:10642000E078CA07C307D20FDB0F9A4262D18A070E
:106430008307D20FDB0F9A427AD149074007C90F71
:10644000C00F814274D129792079CA07C307D20FBE
:10645000DB0F9A426CD18A078307D20FDB0F9A4277
:1064600066D14A074307D20FDB0F9A4260D10A0771
:106470000307D20FDB0F9A425AD1C906C006C90FD3
:10648000C00F814254D169796079CA07C307D20F1E
:10649000DB0F9A424CD18A078307D20FDB0F9A4257
:1064A00046D14A074307D20FDB0F9A4240D10A0771
:1064B0000307D20FDB0F9A423AD1C906C006C90FB3
:1064C000C00F814234D1EA88E388A81DA11D9A42F9
:1064D0002ED1827C8B7C9446D207DF07D20FFF0F30
:1064E000BA4225D1624652085B089A4220D1891CE3
:1064F000801C00E01CE001F019F8002818D12846A3
:1065000021461A301A31102201F010F800280FD15C
:10651000284621462A302A3102780B789A4207D140
:106520000622491C401C01F001F8002800D15AE75E
:10653000104D32222146281D01F048F8E088E887F6
:10654000284600F088FB042826D0002801D0B16836
:10655000884771680029EAD00320009028786A46AD
:1065600010716846884703B0F0BD0000CC200020C1
:10657000F8240020042500203A2500206C25002066
:106580000E250020462500207C28002044280020DD
:10659000472500200825002071680029D7D0042055
:1065A000009028786A4610716846D1E7401C9042F6
:1065B00000DA0EE600221146E88871DF002801D0DB
:1065C000B168884700221146E888A9DF0028CAD0B0
:1065D000B168884703B0F0BD002182B2E888A9DF26
:1065E000F4E7A2791107090F120901290FD0022936
:1065F000F0D1002AEED071680029EBD0022200927F
:1066000000786A4610716846884703B0F0BD012AD9
:10661000F1D803B0F0BDF8B5FB4C207800285CD071
:10662000FA480068401C1DD01420694608806A465C
:10663000F749E088AADF002850D1F4496A46086883
:10664000C86412884A66002849DB6178884246DAC5
:1066500068214843EF49682240186839FDF794FDE6
:1066600000F071FB00221146104600F0B3FB6946B2
:1066700008806078002500280EDDE64E2846682157
:10668000484380196A464C2100F0A4FB6946088003
:1066900060786D1C8542F1DB0888218988424CD0E6
:1066A000DD4E307800F02AFC002817D12071054615
:1066B0006078002841DD01273F076820D5496843FD
:1066C00046183869502180B201F02CF80146207933
:1066D00081426DD9002804D010E00820F8BD0720C1
:1066E000F8BD00221146104600F074FB2081CA4814
:1066F000CA49007800F0AAFC0028F1D1E068132212
:106700003146001D00F0D4FB0028E9D1C44A4C21D9
:10671000304600F05FFBC34920814118E06800F07B
:10672000ACFB0028DCD1E0686D1C5030E0602079C3
:10673000401C207160788542BFDB00221146104664
:1067400000F048FB694608806078002500280FDDCE
:10675000B04E28466821484380194C306A461C21B7
:1067600000F038FB6946088060786D1C8542F0DBDC
:106770000888618988424BD0A74E707800F0BEFB34
:106780000028ADD1607105466078002840DDA14F3A
:10679000284668214843C6194C3601200007006985
:1067A000502180B200F0BEFF01466079814201D8DD
:1067B0000420F8BD00280CD100221146104600F03C
:1067C00009FB608194489849407800F03FFC00281C
:1067D000EFD1206907223146001D00F069FB002837
:1067E000E7D1924A1C21304600F0F4FA8D496081CD
:1067F0004118206900F041FB0028DAD120696D1CA6
:10680000203020616079401C607160788542BFDB78
:106810000020C043E08001467C480160C164002143
:1068200041660846F8BDF8B5784C606E002801D086
:106830000820F8BD142069460880734D6A467449E3
:10684000E888AADF0028F4D121686846E16400885E
:1068500060666A7868235A436E4BD218744B1746A9
:10686000DE699D695C694C3772C7196A5B6A136699
:10687000D16550666F4800F02AFAF8BD6248017889
:10688000002901D10820704770B5002444700471BC
:10689000614D4471287800F031FB002805D16878FB
:1068A00000F02CFB002800D1204670BD10B50B462F
:1068B000411C0CD054494978884208DA002B06D094
:1068C0006821484353494118487A400701D50720B9
:1068D00010BD42310722184600F078FE002010BD9E
:1068E000F1B54948C778002F41D000240721384628
:1068F00000F018FF00235048504A002908DDE50049
:106900002D18A6006D68641C5B1C95518B42F6DB4C
:10691000B9422CDAE3001B18A5005B685351641CD4
:10692000E3001B18A5005B685351641CE3001B18AF
:10693000A5005B685351641CE3001B18A5005B684D
:106940005351641CE3001B18A5005B685351641C81
:10695000E3001B18A5005B685351641CE3001B187F
:10696000A5005B68641CC91D5351B942D2DB26489F
:106970008578002D42D000240721284600F0D2FE61
:1069800000202F4A002909DD2E4BE600F318A6004F
:106990005B68641C401C93518842F5DBA9422DDAE8
:1069A0002848E3001B18A6005B689351641CE300B1
:1069B0001B18A6005B689351641CE3001B18A6001B
:1069C0005B689351641CE3001B18A6005B6893513D
:1069D000641CE3001B18A6005B689351641CE30071
:1069E0001B18A6005B689351641CE3001B18A600EB
:1069F0005B68641CC91D9351A942D2DB0098002D2D
:106A0000057121D00E4920E0CC2000200425002073
:106A1000542500206C250020F8240020D8200020D8
:106A2000D42000200000DE45DC200020D6200020FD
:106A300040250020502500207C280020DC24002058
:106A4000C02400204428002000210098002F01606D
:106A50000098077301D0D14900E0002100988160BF
:106A60000020F8BD8168002909D0012212071269AF
:106A7000232392B21B019A4203D20C2070470720B5
:106A80007047F0B5C64A436897B00068D363116495
:106A900090636821C34800F043FE0026C148F643D6
:106AA000C14C0660E680002565702571BF4F657199
:106AB000B878002809D0387800F020FA00283DD1B5
:106AC000787800F01BFA002838D1B94F657020792A
:106AD00002AE00280CD100221146104600F07AF9CF
:106AE0002081B248B349007800F0B0FA00281CD1E8
:106AF000E1680868020CBA4214D185B24C22091D23
:106B00003046FDF741FBAC4A4C21304600F062F9BB
:106B10002081A84211D12079401C2071E0685030BA
:106B2000E06006E0401C21D00B2005281ED0002884
:106B300004D16078029D854202DD0B2017B0F0BDC4
:106B40006820294641439D484C220E1802A9304630
:106B5000FDF71AFB6078854205D100217166491E58
:106B6000401CF1646070C0B20728B0D300200090D0
:106B70006078002851DD607902AE00280CD1002237
:106B80001146104600F026F9608188488C4940780B
:106B900000F05CFA002824D12069854A01680B0CBA
:106BA00093421BD18DB2011D8EC9059704930392A8
:106BB000029182694169C069079206910890814AF1
:106BC0001C21304600F006F96081A842B5D16079F9
:106BD000401C607120692030206106E0491C1CD0F7
:106BE0000B20052819D00028A8D16078029981428D
:106BF000A3DC68225143714A891802AA6CCA0F4665
:106C00004C376CC7089D079B069A4D660B66CA6594
:106C10000099491C00918142ADDB607807210B1A75
:106C2000002B11DD682148436449002640180146C5
:106C3000024664314C30751E15600E600560683286
:106C4000683168305B1EF7D100F07DF801202070BC
:106C5000002017B0F0BD70B505460120000700699F
:106C6000502180B200F05EFD4F4C014620798142F8
:106C700001D8042070BD00280CD100221146104616
:106C800000F0A8F8208149484A49007800F0DEF970
:106C90000028EFD1E06813222946001D00F008F912
:106CA0000028E7D1444A4C21284600F093F8464991
:106CB00020814118E06800F0E0F80028DAD1E068AF
:106CC0005030E0602079401C2071002070BD70B50C
:106CD0000546012000070069502180B200F022FD26
:106CE000314C01466079814201D8042070BD0028F2
:106CF0000CD100221146104600F06CF860812B4840
:106D00002F49407800F0A2F90028EFD1206907222E
:106D10002946001D00F0CCF80028E7D1294A1C21A3
:106D2000284600F057F8284960814118206900F092
:106D3000A4F80028DAD12069203020616079401C55
:106D40006071002070BD184A00209070D070537898
:106D50000146002B20DDF0B46820184C4843001990
:106D6000447A0778640709D5D478184DE600AF5502
:106D70001E307519641C6860D47008E09478144D56
:106D8000E600AF5542307519641C68609470491C68
:106D90009942E1DBF0BC704770470000DC24002022
:106DA000C024002004250020CC200020F82400204E
:106DB000DE450000D8200020D42000206C250020D3
:106DC000DC200020D62000200000DE457C280020AA
:106DD00044280020F0B40546002A4CD010884A1EF2
:106DE000002A36DD01266B1ECC07F607A4190ED04B
:106DF000040A000204435B1C187860400406240F58
:106E000044402003604084B22006C00C60405E789D
:106E100052101ED0070A0002074377403806000FC1
:106E2000784006034640B0B20606F70C47409B1C6C
:106E3000380A1C783F02384360400406240F44405F
:106E40002003604084B22006C00C5E786040521E71
:106E5000E0D1491E0DD4020A00020243685C504092
:106E60000106090F41400803484081B20806C00CE2
:106E70004840F0BC70477B48B1E7F0B47A4C064616
:106E800020780D46002803D03DDF20780028FBD174
:106E9000764901204860764A10680028FCD000201E
:106EA0003560486010680028FCD0F0BC00207047B6
:106EB000F7B5002496460646002A1CD96A4D01986B
:106EC000A10047582878002803D03DDF2878002803
:106ED000FBD166490120486065480268002AFCD061
:106EE000002237604A6001680029FCD0641C361D0E
:106EF000E4B27445E3D3002003B0F0BD10B4012127
:106F000009070969594A8CB244430223536058481F
:106F100001680029FCD0946001680029FCD0516808
:106F20009943516001680029FCD010BC00207047D3
:106F3000F8B58C4601210907096917468EB2464308
:106F40009100002260460096FFF744FF8646308895
:106F500081B2714551D0454D0220009A6860444C81
:106F600021680029FCD0AA6021680029FCD069684A
:106F70008143696020680028FCD008360022002F79
:106F800011DD012190006346185869602368002BC9
:106F9000FCD030600020686020680028FCD0361DDE
:106FA000521CBA42EEDB304E3078002803D03DDF71
:106FB00030780028FBD10120686020680028FCD0D0
:106FC000009847600020686020680028FCD02949AC
:106FD000704647183078002803D03DDF307800280D
:106FE000FBD10120686020680028FCD00098076071
:106FF0000020686020680028FCD00020F8BDF8B5AB
:107000000F46012109070969144689B241430D68F9
:10701000184E280C0004B04203D000201070052048
:10702000F8BD091D087820708200091D3846FDF75B
:10703000ABF82078002281003846FFF7CBFE80199C
:10704000A84201D00520F8BD0020F8BD012212079A
:10705000126992B2424300200A60704702490870E8
:1070600070470000FFFF0000E020002000E5014025
:1070700000E401400000DE45F8B5614E0446694673
:10708000707800F02DFA00282CD10099F0680A469B
:107090000140B06890430843044023D03078002575
:1070A00000281FD901270C20716868434218107806
:1070B00039468140214210D09268002A0DD0736970
:1070C000002B09D0014610469847002805D04DA254
:1070D0002921FDF7B7F800E090476D1C3078EDB23C
:1070E0008542E0D3F8BD70B5454D04460E46A8690B
:1070F000FEF716FD002805D1344322462969A86908
:10710000FEF7A5FC70BD052A01D207207047F8B52F
:107110003B4C60602170636122610022E2604B1E83
:10712000A260DCB2002920D0424F13460C216143FB
:107130000E18317875688900AD00C9190D60757831
:10714000002D01D0012100E000213678B1400B4331
:10715000002D19D00021B1400A432146641EE4B23B
:107160000029E3D12648C36082602548324B8268FB
:10717000C168324800F003F9002804D1304A0021E8
:107180003048FEF73BFCF8BD0121E4E71C484168AC
:10719000002901D10820704710B5407800F02AF985
:1071A00010BD10B5164C6068002808D0607800F05B
:1071B00066F9002802D1A069FEF7B2FC10BD0820D4
:1071C00010BDF8B50E4C064660680D4600280ED07E
:1071D0006946607800F084F9002809D101220098FE
:1071E000B240024205D0E068104005D105E0082019
:1071F000F8BDA068104000D0012028700020F8BD24
:10720000E42000202E2E5C2E2E5C2E2E5C2E2E5C7A
:107210002E2E5C536F757263655C6170705F636F77
:107220006D6D6F6E5C6170705F627574746F6E2EE1
:107230006300000000070050E7700100E520002017
:1072400079700100FC20002010490122087850408C
:1072500008704968002900D00847704730B40546D7
:107260000A480C464260152027DF00280BD129462A
:10727000152028DF002806D1152023DF002802D1A1
:107280002146032049DF30BC704700000021002068
:10729000F8B59E48006900909D490020C8630446E7
:1072A0009C48417800293FD903273F0414202146F8
:1072B00041439848426880688A180121A1400142F0
:1072C0002CD0D068C343009843401068034000208E
:1072D00001258540194629420FD0D66831462942FA
:1072E00023D03946AE43D6608B4D860075192E6883
:1072F000BE432E602E680E432E60401C2028E7D32C
:10730000009891681D4685432940009D50681D40A6
:10731000284003460B4301D0126990477D48641C06
:107320004078E4B28442C1D3F8BD012149042E4320
:10733000D9E7002901D08A0701D00720704710B58E
:10734000744A0B46516010700021517091601421F5
:107350004143184600F0E4F900207049C0438860BA
:107360006F48402101606F484268FF231B049A4325
:107370000B04D21842606C480160002010BDF0B4CC
:10738000844664484568002D08D0002B09D0447815
:107390000678B44208D3F0BC04207047F0BC082043
:1073A0007047F0BC072070470F461426174366430A
:1073B000AF5176193361B260716061460C70611C27
:1073C0004170142100204C430122534B03273F04FA
:1073D0002E59114681400E4206D08100C9180E6810
:1073E000BE430E600E680E60401C2028F0D3F0BC37
:1073F00000207047F0B4474C6268002A05D06178DD
:10740000884205D3F0BC07207047F0BC08207047C5
:107410003F490025CD633D4909698C46A168002993
:1074200003D101233D4EDB077360012686400E43E6
:10743000142148438118A660CD60032500212D0446
:107440008618012413588C40234212D063462342ED
:1074500001D02B4604E00123F7685B042743F76063
:107460002D4C8F003C192768AF43276027681F43C6
:107470002760491C2029E4D3F0BC00207047F0B4F9
:10748000244A5568002D05D05178884205D3F0BCB8
:1074900007207047F0BC08207047142200214243A7
:1074A000012403273F04AE5823468B401E4207D0D9
:1074B000194E8B009B191E68BE431E601E681E601D
:1074C000491C2029EFD3134984408868A043886071
:1074D00003D101201149C0078860F0BC002070472B
:1074E0000C4B5A68002A04D05B78984203D30720DB
:1074F000704708207047142358438018034A1269C4
:107500000068024000200A6070470000000500503B
:107510004061004008210020000700500063004047
:1075200080E200E000E400E000E100E0034610B586
:107530000B439B070FD1042A0DD308C810C9121F93
:10754000A342F8D018BA21BA884201D9012010BD4F
:107550000020C04310BD002A03D0D30703D0521C23
:1075600007E0002010BD03780C78401C491C1B1B51
:1075700007D103780C78401C491C1B1B01D1921EBB
:10758000F1D1184610BD000030B5441C03E001786D
:10759000401C00290DD08107F9D10B4BDD0104C837
:1075A000D11A91432940FAD0001B0A0603D0C01E0D
:1075B00030BD001B30BD0A0401D0801E30BD090261
:1075C000FCD0401E30BD000001010101F8B5042AC5
:1075D0002CD3830712D00B78491C0370401C521E19
:1075E00083070BD00B78491C0370401C521E830785
:1075F00004D00B78491C0370401C521E8B079B0F54
:1076000005D0C91ADF002023DE1B08C90AE0FCF7F9
:10761000BBFDF8BD1D4608C9FD401C46B4402C43C7
:1076200010C0121F042AF5D2F308C91A521EF0D452
:107630000B78491C0370401C521EEAD40B78491C7D
:107640000370401C521EE4D409780170F8BD431A3F
:1076500070B593421BD28918801804E0491E521E4F
:107660000B78401E03709307F8D106E010390B46E3
:107670001038103A78CB78C01038102AF6D203E0D0
:10768000001F091F0B680360121FF9D570BDFCF7BE
:107690007BFD70BDF8B5064614460843800707D049
:1076A000751AA54219D20819102D13D2311907E005
:1076B0003046FFF7CCFFF8BD401E491E02780A7025
:1076C000641EF9D2F8BD471B2A463946FFF77EFFF4
:1076D000641B3846A542F6D3011B22463046FFF70D
:1076E00075FFF8BD01E004C0091F0429FBD28B0718
:1076F00001D50280801CC90700D0027070470029A4
:107700000BD0C30702D00270401C491E022904D3CB
:10771000830702D50280801C891EE3E70022EEE782
:107720000022DFE7002203098B4273D3030A8B4256
:1077300058D3030B8B423CD3030C8B4221D312E072
:1077400003460B437FD4002243088B4274D30309C2
:107750008B425FD3030A8B4244D3030B8B4228D363
:10776000030C8B420DD3FF22090212BA030C8B4289
:1077700002D31212090265D0030B8B4219D300E029
:10778000090AC30B8B4201D3CB03C01A5241830BAE
:107790008B4201D38B03C01A5241430B8B4201D35E
:1077A0004B03C01A5241030B8B4201D30B03C01A87
:1077B0005241C30A8B4201D3CB02C01A5241830A01
:1077C0008B4201D38B02C01A5241430A8B4201D330
:1077D0004B02C01A5241030A8B4201D30B02C01A5A
:1077E0005241CDD2C3098B4201D3CB01C01A5241C1
:1077F00083098B4201D38B01C01A524143098B424A
:1078000001D34B01C01A524103098B4201D30B0132
:10781000C01A5241C3088B4201D3CB00C01A524157
:1078200083088B4201D38B00C01A524143088B421C
:1078300001D34B00C01A5241411A00D201465241B5
:10784000104670475DE0CA0F00D04942031000D3D4
:107850004042534000229C4603098B422DD3030A29
:107860008B4212D3FC22890112BA030A8B420CD339
:10787000890192118B4208D3890192118B4204D362
:1078800089013AD0921100E08909C3098B4201D3E2
:10789000CB01C01A524183098B4201D38B01C01A1C
:1078A000524143098B4201D34B01C01A5241030993
:1078B0008B4201D30B01C01A5241C3088B4201D342
:1078C000CB00C01A524183088B4201D38B00C01AEF
:1078D0005241D9D243088B4201D34B00C01A5241C6
:1078E000411A00D20146634652415B10104601D353
:1078F0004042002B00D54942704763465B1000D3DD
:10790000404201B50020C046C04602BD70477047E6
:107910007047754600F022F8AE46050069465346AA
:10792000C008C000854618B020B5FCF759FC60BC03
:1079300000274908B6460026C0C5C0C5C0C5C0C599
:10794000C0C5C0C5C0C5C0C5403D49008D467047D3
:107950000446C046C0462046FCF7FFFB004870477F
:10796000B428002001491820ABBEFEE72600020023
:10797000704700000D1801000F1801000A180100DF
:10798000A079010000200020140100000441010042
:10799000B47A0100142100200418000020410100E5
:1079A0000024F400FFFF00000000000000000000C1
:1079B00000000000000000001000000003000000B4
:1079C000BF4201001100000003000000BF4201009F
:1079D00000000000000000000000000000000000A7
:1079E0000000000000000000000000000000000097
:1079F0000000000000000000000000000000000087
:107A00000000000000000000000000000000000076
:107A10000000000000000000000000000000000066
:107A20000000000000000000000000000000000056
:107A30000000000000000000000000000000000046
:107A40000000000000000000000000000000000036
:107A50000000000000000000000000000000000026
:107A60000000000000000000000000000000000016
:107A70000000000000000000000000000000000006
:107A800000000000000000000000000000000000F6
:107A900000000000000000000000000000000000E6
:107AA00000000000000000000000000000000000D6
:047AB00000000000D2
:04000005000140C1F5
:00000001FF
